{
  "contractName": "CreditLoan",
  "abi": [
    {
      "inputs": [
        {
          "internalType": "address",
          "name": "tokenAddress",
          "type": "address"
        }
      ],
      "stateMutability": "nonpayable",
      "type": "constructor"
    },
    {
      "inputs": [
        {
          "internalType": "uint256",
          "name": "amount",
          "type": "uint256"
        },
        {
          "internalType": "uint256",
          "name": "amountEther",
          "type": "uint256"
        },
        {
          "internalType": "uint256",
          "name": "returnDate",
          "type": "uint256"
        }
      ],
      "name": "giveLoan",
      "outputs": [],
      "stateMutability": "nonpayable",
      "type": "function"
    },
    {
      "inputs": [
        {
          "internalType": "uint256",
          "name": "amount",
          "type": "uint256"
        },
        {
          "internalType": "uint256",
          "name": "amountEther",
          "type": "uint256"
        }
      ],
      "name": "pay",
      "outputs": [],
      "stateMutability": "nonpayable",
      "type": "function"
    },
    {
      "inputs": [],
      "name": "getUserLoans",
      "outputs": [
        {
          "components": [
            {
              "internalType": "uint256",
              "name": "loanAmount",
              "type": "uint256"
            },
            {
              "internalType": "uint256",
              "name": "returnedLoan",
              "type": "uint256"
            },
            {
              "internalType": "uint256",
              "name": "returnDate",
              "type": "uint256"
            },
            {
              "internalType": "uint256",
              "name": "interestRate",
              "type": "uint256"
            },
            {
              "internalType": "uint256",
              "name": "loanCompletedDate",
              "type": "uint256"
            }
          ],
          "internalType": "struct CreditLoan.Loan[]",
          "name": "",
          "type": "tuple[]"
        }
      ],
      "stateMutability": "view",
      "type": "function",
      "constant": true
    },
    {
      "inputs": [],
      "name": "currentUserLoan",
      "outputs": [
        {
          "internalType": "uint256",
          "name": "",
          "type": "uint256"
        }
      ],
      "stateMutability": "view",
      "type": "function",
      "constant": true
    },
    {
      "inputs": [],
      "name": "calculateCreditLimit",
      "outputs": [
        {
          "internalType": "uint256",
          "name": "",
          "type": "uint256"
        }
      ],
      "stateMutability": "view",
      "type": "function",
      "constant": true
    },
    {
      "inputs": [],
      "name": "calculateCredit",
      "outputs": [
        {
          "internalType": "uint256",
          "name": "",
          "type": "uint256"
        }
      ],
      "stateMutability": "view",
      "type": "function",
      "constant": true
    }
  ],
  "bytecode": "0x608060405260056001556007600255600a6003556113886004553480156200002657600080fd5b506040516200184e3803806200184e83398181016040528101906200004c9190620000fd565b806000806101000a81548173ffffffffffffffffffffffffffffffffffffffff021916908373ffffffffffffffffffffffffffffffffffffffff160217905550506200012f565b600080fd5b600073ffffffffffffffffffffffffffffffffffffffff82169050919050565b6000620000c58262000098565b9050919050565b620000d781620000b8565b8114620000e357600080fd5b50565b600081519050620000f781620000cc565b92915050565b60006020828403121562000116576200011562000093565b5b60006200012684828501620000e6565b91505092915050565b61170f806200013f6000396000f3fe608060405234801561001057600080fd5b50600436106100625760003560e01c806313f0003c1461006757806370d73cd11461008557806399b95462146100a3578063a897da3a146100c1578063ab85204a146100dd578063ef48eee6146100fb575b600080fd5b61006f610117565b60405161007c9190610e13565b60405180910390f35b61008d61014b565b60405161009a9190610e13565b60405180910390f35b6100ab6102e7565b6040516100b89190610f54565b60405180910390f35b6100db60048036038101906100d69190610fa7565b610469565b005b6100e56107ec565b6040516100f29190610e13565b60405180910390f35b61011560048036038101906101109190610ffa565b61083f565b005b6000806101226107ec565b90506000610320600454836101379190611069565b61014191906110da565b9050809250505090565b6000600660003373ffffffffffffffffffffffffffffffffffffffff1673ffffffffffffffffffffffffffffffffffffffff16815260200190815260200160002060000160009054906101000a900460ff16156102df57600560003373ffffffffffffffffffffffffffffffffffffffff1673ffffffffffffffffffffffffffffffffffffffff1681526020019081526020016000206000600660003373ffffffffffffffffffffffffffffffffffffffff1673ffffffffffffffffffffffffffffffffffffffff16815260200190815260200160002060010154815260200190815260200160002060010154600560003373ffffffffffffffffffffffffffffffffffffffff1673ffffffffffffffffffffffffffffffffffffffff1681526020019081526020016000206000600660003373ffffffffffffffffffffffffffffffffffffffff1673ffffffffffffffffffffffffffffffffffffffff168152602001908152602001600020600101548152602001908152602001600020600001546102d8919061110b565b90506102e4565b600090505b90565b60606000600660003373ffffffffffffffffffffffffffffffffffffffff1673ffffffffffffffffffffffffffffffffffffffff16815260200190815260200160002060010154905060008167ffffffffffffffff81111561034c5761034b61113f565b5b60405190808252806020026020018201604052801561038557816020015b610372610dcb565b81526020019060019003908161036a5790505b5090506000600190505b82811161046057600560003373ffffffffffffffffffffffffffffffffffffffff1673ffffffffffffffffffffffffffffffffffffffff16815260200190815260200160002060008281526020019081526020016000206040518060a00160405290816000820154815260200160018201548152602001600282015481526020016003820154815260200160048201548152505082600183610431919061110b565b815181106104425761044161116e565b5b602002602001018190525080806104589061119d565b91505061038f565b50809250505090565b600061047482610ada565b90506000610480610117565b905060008060009054906101000a900473ffffffffffffffffffffffffffffffffffffffff1673ffffffffffffffffffffffffffffffffffffffff166370a08231306040518263ffffffff1660e01b81526004016104de9190611226565b602060405180830381865afa1580156104fb573d6000803e3d6000fd5b505050506040513d601f19601f8201168201806040525081019061051f9190611256565b905081861115610564576040517f08c379a000000000000000000000000000000000000000000000000000000000815260040161055b906112e0565b60405180910390fd5b808511156105a7576040517f08c379a000000000000000000000000000000000000000000000000000000000815260040161059e9061134c565b60405180910390fd5b60008054906101000a900473ffffffffffffffffffffffffffffffffffffffff1673ffffffffffffffffffffffffffffffffffffffff1663a9059cbb33876040518363ffffffff1660e01b815260040161060292919061136c565b6020604051808303816000875af1158015610621573d6000803e3d6000fd5b505050506040513d601f19601f8201168201806040525081019061064591906113cd565b506001600660003373ffffffffffffffffffffffffffffffffffffffff1673ffffffffffffffffffffffffffffffffffffffff16815260200190815260200160002060000160006101000a81548160ff021916908315150217905550600660003373ffffffffffffffffffffffffffffffffffffffff1673ffffffffffffffffffffffffffffffffffffffff16815260200190815260200160002060010160008154809291906106f49061119d565b91905055506000600560003373ffffffffffffffffffffffffffffffffffffffff1673ffffffffffffffffffffffffffffffffffffffff1681526020019081526020016000206000600660003373ffffffffffffffffffffffffffffffffffffffff1673ffffffffffffffffffffffffffffffffffffffff16815260200190815260200160002060010154815260200190815260200160002090506064848861079d9190611069565b6107a791906110da565b816000018190555062015180856107be9190611069565b426107c991906113fa565b816002018190555083816003018190555086816001018190555050505050505050565b600080600a60036107fc33610b64565b61080533610c1d565b61080e33610ca7565b6108189190611438565b6108229190611438565b61082c919061147c565b61083691906114f4565b90508091505090565b600660003373ffffffffffffffffffffffffffffffffffffffff1673ffffffffffffffffffffffffffffffffffffffff16815260200190815260200160002060000160009054906101000a900460ff166108ce576040517f08c379a00000000000000000000000000000000000000000000000000000000081526004016108c5906115aa565b60405180910390fd5b6000600560003373ffffffffffffffffffffffffffffffffffffffff1673ffffffffffffffffffffffffffffffffffffffff1681526020019081526020016000206000600660003373ffffffffffffffffffffffffffffffffffffffff1673ffffffffffffffffffffffffffffffffffffffff168152602001908152602001600020600101548152602001908152602001600020905080600001548311156109ab576040517f08c379a00000000000000000000000000000000000000000000000000000000081526004016109a290611616565b60405180910390fd5b60008054906101000a900473ffffffffffffffffffffffffffffffffffffffff1673ffffffffffffffffffffffffffffffffffffffff166323b872dd3330856040518463ffffffff1660e01b8152600401610a0893929190611636565b6020604051808303816000875af1158015610a27573d6000803e3d6000fd5b505050506040513d601f19601f82011682018060405250810190610a4b91906113cd565b50828160010154610a5c919061110b565b81600101819055506000816002015403610ad5574281600401819055506000600660003373ffffffffffffffffffffffffffffffffffffffff1673ffffffffffffffffffffffffffffffffffffffff16815260200190815260200160002060000160006101000a81548160ff0219169083151502179055505b505050565b6000601e821480610aeb5750603c82145b80610af65750605a82145b610b35576040517f08c379a0000000000000000000000000000000000000000000000000000000008152600401610b2c906116b9565b60405180910390fd5b601e8203610b47576001549050610b5f565b603c8203610b59576002549050610b5f565b60035490505b919050565b60006008600660008473ffffffffffffffffffffffffffffffffffffffff1673ffffffffffffffffffffffffffffffffffffffff1681526020019081526020016000206001015410610bba576103209050610c18565b6064600660008473ffffffffffffffffffffffffffffffffffffffff1673ffffffffffffffffffffffffffffffffffffffff168152602001908152602001600020600101546008610c0b919061110b565b610c159190611069565b90505b919050565b6000600660008373ffffffffffffffffffffffffffffffffffffffff1673ffffffffffffffffffffffffffffffffffffffff16815260200190815260200160002060000160009054906101000a900460ff1615610c9c577ffffffffffffffffffffffffffffffffffffffffffffffffffffffffffffffce09050610ca2565b61032090505b919050565b600080600560008473ffffffffffffffffffffffffffffffffffffffff1673ffffffffffffffffffffffffffffffffffffffff1681526020019081526020016000206000600660008673ffffffffffffffffffffffffffffffffffffffff1673ffffffffffffffffffffffffffffffffffffffff1681526020019081526020016000206001015481526020019081526020016000206040518060a0016040529081600082015481526020016001820154815260200160028201548152602001600382015481526020016004820154815250509050600081608001518260400151610d91919061110b565b10610da157610320915050610dc6565b7ffffffffffffffffffffffffffffffffffffffffffffffffffffffffffffffce09150505b919050565b6040518060a0016040528060008152602001600081526020016000815260200160008152602001600081525090565b6000819050919050565b610e0d81610dfa565b82525050565b6000602082019050610e286000830184610e04565b92915050565b600081519050919050565b600082825260208201905092915050565b6000819050602082019050919050565b610e6381610dfa565b82525050565b60a082016000820151610e7f6000850182610e5a565b506020820151610e926020850182610e5a565b506040820151610ea56040850182610e5a565b506060820151610eb86060850182610e5a565b506080820151610ecb6080850182610e5a565b50505050565b6000610edd8383610e69565b60a08301905092915050565b6000602082019050919050565b6000610f0182610e2e565b610f0b8185610e39565b9350610f1683610e4a565b8060005b83811015610f47578151610f2e8882610ed1565b9750610f3983610ee9565b925050600181019050610f1a565b5085935050505092915050565b60006020820190508181036000830152610f6e8184610ef6565b905092915050565b600080fd5b610f8481610dfa565b8114610f8f57600080fd5b50565b600081359050610fa181610f7b565b92915050565b600080600060608486031215610fc057610fbf610f76565b5b6000610fce86828701610f92565b9350506020610fdf86828701610f92565b9250506040610ff086828701610f92565b9150509250925092565b6000806040838503121561101157611010610f76565b5b600061101f85828601610f92565b925050602061103085828601610f92565b9150509250929050565b7f4e487b7100000000000000000000000000000000000000000000000000000000600052601160045260246000fd5b600061107482610dfa565b915061107f83610dfa565b925082820261108d81610dfa565b915082820484148315176110a4576110a361103a565b5b5092915050565b7f4e487b7100000000000000000000000000000000000000000000000000000000600052601260045260246000fd5b60006110e582610dfa565b91506110f083610dfa565b925082611100576110ff6110ab565b5b828204905092915050565b600061111682610dfa565b915061112183610dfa565b92508282039050818111156111395761113861103a565b5b92915050565b7f4e487b7100000000000000000000000000000000000000000000000000000000600052604160045260246000fd5b7f4e487b7100000000000000000000000000000000000000000000000000000000600052603260045260246000fd5b60006111a882610dfa565b91507fffffffffffffffffffffffffffffffffffffffffffffffffffffffffffffffff82036111da576111d961103a565b5b600182019050919050565b600073ffffffffffffffffffffffffffffffffffffffff82169050919050565b6000611210826111e5565b9050919050565b61122081611205565b82525050565b600060208201905061123b6000830184611217565b92915050565b60008151905061125081610f7b565b92915050565b60006020828403121561126c5761126b610f76565b5b600061127a84828501611241565b91505092915050565b600082825260208201905092915050565b7f61626f766520796f7572206c696d697400000000000000000000000000000000600082015250565b60006112ca601083611283565b91506112d582611294565b602082019050919050565b600060208201905081810360008301526112f9816112bd565b9050919050565b7f4e6f7420656e6f75676820746f6b656e7320696e207468652072657365727665600082015250565b6000611336602083611283565b915061134182611300565b602082019050919050565b6000602082019050818103600083015261136581611329565b9050919050565b60006040820190506113816000830185611217565b61138e6020830184610e04565b9392505050565b60008115159050919050565b6113aa81611395565b81146113b557600080fd5b50565b6000815190506113c7816113a1565b92915050565b6000602082840312156113e3576113e2610f76565b5b60006113f1848285016113b8565b91505092915050565b600061140582610dfa565b915061141083610dfa565b92508282019050808211156114285761142761103a565b5b92915050565b6000819050919050565b60006114438261142e565b915061144e8361142e565b9250828201905082811215600083121683821260008412151617156114765761147561103a565b5b92915050565b60006114878261142e565b91506114928361142e565b92508282026114a08161142e565b91507f800000000000000000000000000000000000000000000000000000000000000084146000841216156114d8576114d761103a565b5b82820584148315176114ed576114ec61103a565b5b5092915050565b60006114ff8261142e565b915061150a8361142e565b92508261151a576115196110ab565b5b600160000383147f8000000000000000000000000000000000000000000000000000000000000000831416156115535761155261103a565b5b828205905092915050565b7f6e6f206465627420696e2063757272656e742074696d65000000000000000000600082015250565b6000611594601783611283565b915061159f8261155e565b602082019050919050565b600060208201905081810360008301526115c381611587565b9050919050565b7f6d6178207061796d656e74000000000000000000000000000000000000000000600082015250565b6000611600600b83611283565b915061160b826115ca565b602082019050919050565b6000602082019050818103600083015261162f816115f3565b9050919050565b600060608201905061164b6000830186611217565b6116586020830185611217565b6116656040830184610e04565b949350505050565b7f696e636f72726563742072657475726e20646174650000000000000000000000600082015250565b60006116a3601583611283565b91506116ae8261166d565b602082019050919050565b600060208201905081810360008301526116d281611696565b905091905056fea26469706673582212200637c21038c4122d7443abff03b305951c52077a55b350f1acc7e75d8850d71164736f6c63430008130033",
  "immutableReferences": {},
  "source": "// SPDX-License-Identifier: MIT\npragma solidity ^0.8.0;\n\ninterface IERC20 {\n    function balanceOf(address owner) external view returns (uint256);\n\n    function allowance(address owner, address spender)\n        external\n        view\n        returns (uint256);\n\n    function approve(address spender, uint256 value) external returns (bool);\n\n    function transfer(address to, uint256 value) external returns (bool);\n\n    function transferFrom(\n        address from,\n        address to,\n        uint256 value\n    ) external returns (bool);\n}\n\ncontract CreditLoan {\n    struct Loan {\n        uint256 loanAmount;\n        uint256 returnedLoan;\n        uint256 returnDate;\n        uint256 interestRate;\n        uint256 loanCompletedDate;\n    }\n\n    struct UserLoanStatus {\n        bool status;\n        uint256 loanNumber;\n    }\n\n    IERC20 etbc_token;\n    uint256 day30IntersetRate = 5;\n    uint256 day60IntersetRate = 7;\n    uint256 day90IntersetRate = 10;\n    uint256 creditLimit = 5000;\n\n    constructor(address tokenAddress) {\n        etbc_token = IERC20(tokenAddress);\n    }\n\n    mapping(address => mapping(uint256 => Loan)) userLoans;\n    mapping(address => UserLoanStatus) userLoanStatus;\n\n    function giveLoan(\n        uint256 amount,\n        uint256 amountEther,\n        uint256 returnDate\n    ) public {\n        uint256 interst = getIntersetValue(returnDate);\n        uint256 limit = calculateCreditLimit();\n        uint256 contractBalance = etbc_token.balanceOf(address(this));\n        require(amount <= limit, \"above your limit\");\n        require(\n            amountEther <= contractBalance,\n            \"Not enough tokens in the reserve\"\n        );\n        etbc_token.transfer(msg.sender, amountEther);\n        userLoanStatus[msg.sender].status = true;\n        userLoanStatus[msg.sender].loanNumber++;\n        Loan storage loan = userLoans[msg.sender][\n            userLoanStatus[msg.sender].loanNumber\n        ];\n\n        loan.loanAmount = (amount * interst) / 100;\n        loan.returnDate = block.timestamp + (returnDate * 86400);\n        loan.interestRate = interst;\n        loan.returnedLoan = amount;\n    }\n\n    function pay(uint256 amount, uint256 amountEther) public {\n        require(userLoanStatus[msg.sender].status, \"no debt in current time\");\n        Loan storage loan = userLoans[msg.sender][\n            userLoanStatus[msg.sender].loanNumber\n        ];\n        require(amount <= loan.loanAmount, \"max payment\");\n        etbc_token.transferFrom(msg.sender, address(this), amountEther);\n        loan.returnedLoan = loan.returnedLoan - amount;\n        if (loan.returnDate == 0) {\n            loan.loanCompletedDate = block.timestamp;\n            userLoanStatus[msg.sender].status = false;\n        }\n    }\n\n    function getUserLoans() public view returns (Loan[] memory) {\n        uint256 noOfLoan = userLoanStatus[msg.sender].loanNumber;\n\n        Loan[] memory ret = new Loan[](noOfLoan);\n        for (uint256 i = 1; i <= noOfLoan; i++) {\n            ret[i - 1] = userLoans[msg.sender][i];\n        }\n        return ret;\n    }\n\n    function currentUserLoan() public view returns (uint256) {\n        if (userLoanStatus[msg.sender].status) {\n            return\n                userLoans[msg.sender][userLoanStatus[msg.sender].loanNumber]\n                    .loanAmount -\n                userLoans[msg.sender][userLoanStatus[msg.sender].loanNumber]\n                    .returnedLoan;\n        } else {\n            return 0;\n        }\n    }\n\n    function getIntersetValue(uint256 returnDate)\n        internal\n        view\n        returns (uint256)\n    {\n        require(\n            returnDate == 30 || returnDate == 60 || returnDate == 90,\n            \"incorrect return date\"\n        );\n        if (returnDate == 30) {\n            return day30IntersetRate;\n        } else if (returnDate == 60) {\n            return day60IntersetRate;\n        } else {\n            return day90IntersetRate;\n        }\n    }\n\n    function calculateCreditLimit() public view returns (uint256) {\n        uint256 credit = calculateCredit();\n        uint256 limit = (credit * creditLimit) / 800;\n        return limit;\n    }\n\n    function calclulateCreditLastLoan(address user)\n        internal\n        view\n        returns (int256 value)\n    {\n        Loan memory userLastLoan = userLoans[user][\n            userLoanStatus[user].loanNumber\n        ];\n        if (userLastLoan.returnDate - userLastLoan.loanCompletedDate >= 0)\n            return 800;\n        else {\n            return -800;\n        }\n    }\n\n    function calclulateCreditLoanStatus(address user)\n        internal\n        view\n        returns (int256 value)\n    {\n        if (userLoanStatus[user].status) return -800;\n        else {\n            return 800;\n        }\n    }\n\n    function calclulateCreditPayedLoans(address user)\n        internal\n        view\n        returns (uint256 value)\n    {\n        if (userLoanStatus[user].loanNumber >= 8) return 800;\n        else return (8 - userLoanStatus[user].loanNumber) * 100;\n    }\n\n    function calculateCredit() public view returns (uint256) {\n        int256 creditscore = ((calclulateCreditLastLoan(msg.sender) +\n            calclulateCreditLoanStatus(msg.sender) +\n            int256(calclulateCreditPayedLoans(msg.sender))) * 3) / 10;\n        return uint256(creditscore);\n    }\n}\n",
  "sourcePath": "/home/user43/Desktop/work/future/Ano-Blocks-SmartContracts/contracts/CreditLoan.sol",
  "compiler": {
    "name": "solc",
    "version": "0.8.19+commit.7dd6d404.Emscripten.clang"
  },
  "schemaVersion": "3.4.13",
  "updatedAt": "2023-06-11T22:48:17.514Z",
  "networkType": "ethereum",
  "devdoc": {
    "kind": "dev",
    "methods": {},
    "version": 1
  },
  "userdoc": {
    "kind": "user",
    "methods": {},
    "version": 1
  }
}