{
  "contractName": "Dao",
  "abi": [
    {
      "inputs": [],
      "name": "proposalId",
      "outputs": [
        {
          "internalType": "uint256",
          "name": "",
          "type": "uint256"
        }
      ],
      "stateMutability": "view",
      "type": "function",
      "constant": true
    },
    {
      "inputs": [
        {
          "internalType": "uint256",
          "name": "",
          "type": "uint256"
        }
      ],
      "name": "proposals",
      "outputs": [
        {
          "internalType": "string",
          "name": "name",
          "type": "string"
        },
        {
          "internalType": "string",
          "name": "description",
          "type": "string"
        },
        {
          "internalType": "uint256",
          "name": "voteStartingDate",
          "type": "uint256"
        },
        {
          "internalType": "uint256",
          "name": "voteEndingDate",
          "type": "uint256"
        },
        {
          "internalType": "uint256",
          "name": "voteAganist",
          "type": "uint256"
        },
        {
          "internalType": "uint256",
          "name": "voteFor",
          "type": "uint256"
        }
      ],
      "stateMutability": "view",
      "type": "function",
      "constant": true
    },
    {
      "inputs": [
        {
          "internalType": "string",
          "name": "_name",
          "type": "string"
        },
        {
          "internalType": "string",
          "name": "description",
          "type": "string"
        },
        {
          "internalType": "uint256",
          "name": "startingDate",
          "type": "uint256"
        },
        {
          "internalType": "uint256",
          "name": "endingDate",
          "type": "uint256"
        }
      ],
      "name": "addVote",
      "outputs": [],
      "stateMutability": "nonpayable",
      "type": "function"
    },
    {
      "inputs": [
        {
          "internalType": "uint256",
          "name": "_proposalId",
          "type": "uint256"
        },
        {
          "internalType": "bool",
          "name": "_vote",
          "type": "bool"
        }
      ],
      "name": "voting",
      "outputs": [],
      "stateMutability": "nonpayable",
      "type": "function"
    },
    {
      "inputs": [
        {
          "internalType": "uint256",
          "name": "_proposalId",
          "type": "uint256"
        }
      ],
      "name": "getProposal",
      "outputs": [
        {
          "components": [
            {
              "internalType": "string",
              "name": "name",
              "type": "string"
            },
            {
              "internalType": "string",
              "name": "description",
              "type": "string"
            },
            {
              "internalType": "uint256",
              "name": "voteStartingDate",
              "type": "uint256"
            },
            {
              "internalType": "uint256",
              "name": "voteEndingDate",
              "type": "uint256"
            },
            {
              "internalType": "uint256",
              "name": "voteAganist",
              "type": "uint256"
            },
            {
              "internalType": "uint256",
              "name": "voteFor",
              "type": "uint256"
            }
          ],
          "internalType": "struct Dao.Proposal",
          "name": "",
          "type": "tuple"
        }
      ],
      "stateMutability": "view",
      "type": "function",
      "constant": true
    },
    {
      "inputs": [],
      "name": "getProposals",
      "outputs": [
        {
          "components": [
            {
              "internalType": "string",
              "name": "name",
              "type": "string"
            },
            {
              "internalType": "string",
              "name": "description",
              "type": "string"
            },
            {
              "internalType": "uint256",
              "name": "voteStartingDate",
              "type": "uint256"
            },
            {
              "internalType": "uint256",
              "name": "voteEndingDate",
              "type": "uint256"
            },
            {
              "internalType": "uint256",
              "name": "voteAganist",
              "type": "uint256"
            },
            {
              "internalType": "uint256",
              "name": "voteFor",
              "type": "uint256"
            }
          ],
          "internalType": "struct Dao.Proposal[]",
          "name": "",
          "type": "tuple[]"
        },
        {
          "internalType": "bool[]",
          "name": "",
          "type": "bool[]"
        }
      ],
      "stateMutability": "view",
      "type": "function",
      "constant": true
    },
    {
      "inputs": [
        {
          "internalType": "uint256",
          "name": "_id",
          "type": "uint256"
        }
      ],
      "name": "isUserVoted",
      "outputs": [
        {
          "internalType": "bool",
          "name": "",
          "type": "bool"
        }
      ],
      "stateMutability": "view",
      "type": "function",
      "constant": true
    }
  ],
  "bytecode": "0x608060405234801561001057600080fd5b5061174a806100206000396000f3fe608060405234801561001057600080fd5b506004361061007d5760003560e01c806362564c481161005b57806362564c48146100f1578063c5ff1b4414610110578063c7f758a81461012c578063cc7438e51461015c5761007d565b8063013cf08b146100825780632dfca445146100b75780635a4f459a146100d5575b600080fd5b61009c60048036038101906100979190610b1e565b61018c565b6040516100ae96959493929190610bea565b60405180910390f35b6100bf6102d8565b6040516100cc9190610c59565b60405180910390f35b6100ef60048036038101906100ea9190610cac565b6102de565b005b6100f961053e565b604051610107929190610f55565b60405180910390f35b61012a60048036038101906101259190610ff1565b61083c565b005b61014660048036038101906101419190610b1e565b6108c9565b6040516101539190611128565b60405180910390f35b61017660048036038101906101719190610b1e565b610a41565b6040516101839190611159565b60405180910390f35b60006020528060005260406000206000915090508060000180546101af906111a3565b80601f01602080910402602001604051908101604052809291908181526020018280546101db906111a3565b80156102285780601f106101fd57610100808354040283529160200191610228565b820191906000526020600020905b81548152906001019060200180831161020b57829003601f168201915b50505050509080600101805461023d906111a3565b80601f0160208091040260200160405190810160405280929190818152602001828054610269906111a3565b80156102b65780601f1061028b576101008083540402835291602001916102b6565b820191906000526020600020905b81548152906001019060200180831161029957829003601f168201915b5050505050908060020154908060030154908060040154908060050154905086565b60025481565b6001600083815260200190815260200160002060003373ffffffffffffffffffffffffffffffffffffffff1673ffffffffffffffffffffffffffffffffffffffff16815260200190815260200160002060009054906101000a900460ff161561037c576040517f08c379a000000000000000000000000000000000000000000000000000000000815260040161037390611220565b60405180910390fd5b8160025410156103c1576040517f08c379a00000000000000000000000000000000000000000000000000000000081526004016103b89061128c565b60405180910390fd5b60008083815260200190815260200160002060020154421015610419576040517f08c379a0000000000000000000000000000000000000000000000000000000008152600401610410906112f8565b60405180910390fd5b600080838152602001908152602001600020600301544210610470576040517f08c379a000000000000000000000000000000000000000000000000000000000815260040161046790611364565b60405180910390fd5b600180600084815260200190815260200160002060003373ffffffffffffffffffffffffffffffffffffffff1673ffffffffffffffffffffffffffffffffffffffff16815260200190815260200160002060006101000a81548160ff021916908315150217905550801561050e576000808381526020019081526020016000206005016000815480929190610504906113b3565b919050555061053a565b6000808381526020019081526020016000206004016000815480929190610534906113b3565b91905055505b5050565b606080600060025467ffffffffffffffff81111561055f5761055e6113fb565b5b60405190808252806020026020018201604052801561059857816020015b610585610aa8565b81526020019060019003908161057d5790505b509050600060025467ffffffffffffffff8111156105b9576105b86113fb565b5b6040519080825280602002602001820160405280156105e75781602001602082028036833780820191505090505b5090506000600190505b600254811161082f576000808281526020019081526020016000206040518060c0016040529081600082018054610627906111a3565b80601f0160208091040260200160405190810160405280929190818152602001828054610653906111a3565b80156106a05780601f10610675576101008083540402835291602001916106a0565b820191906000526020600020905b81548152906001019060200180831161068357829003601f168201915b505050505081526020016001820180546106b9906111a3565b80601f01602080910402602001604051908101604052809291908181526020018280546106e5906111a3565b80156107325780601f1061070757610100808354040283529160200191610732565b820191906000526020600020905b81548152906001019060200180831161071557829003601f168201915b5050505050815260200160028201548152602001600382015481526020016004820154815260200160058201548152505083600183610771919061142a565b815181106107825761078161145e565b5b60200260200101819052506001600082815260200190815260200160002060003373ffffffffffffffffffffffffffffffffffffffff1673ffffffffffffffffffffffffffffffffffffffff16815260200190815260200160002060009054906101000a900460ff16826001836107f9919061142a565b8151811061080a5761080961145e565b5b6020026020010190151590811515815250508080610827906113b3565b9150506105f1565b5081819350935050509091565b6002600081548092919061084f906113b3565b919050555060006002549050600080600083815260200190815260200160002090508787826000019182610884929190611644565b508585826001019182610898929190611644565b5083816002018190555082816003018190555060008160040181905550600081600501819055505050505050505050565b6108d1610aa8565b6000808381526020019081526020016000206040518060c00160405290816000820180546108fe906111a3565b80601f016020809104026020016040519081016040528092919081815260200182805461092a906111a3565b80156109775780601f1061094c57610100808354040283529160200191610977565b820191906000526020600020905b81548152906001019060200180831161095a57829003601f168201915b50505050508152602001600182018054610990906111a3565b80601f01602080910402602001604051908101604052809291908181526020018280546109bc906111a3565b8015610a095780601f106109de57610100808354040283529160200191610a09565b820191906000526020600020905b8154815290600101906020018083116109ec57829003601f168201915b505050505081526020016002820154815260200160038201548152602001600482015481526020016005820154815250509050919050565b60006001600083815260200190815260200160002060003373ffffffffffffffffffffffffffffffffffffffff1673ffffffffffffffffffffffffffffffffffffffff16815260200190815260200160002060009054906101000a900460ff169050919050565b6040518060c001604052806060815260200160608152602001600081526020016000815260200160008152602001600081525090565b600080fd5b600080fd5b6000819050919050565b610afb81610ae8565b8114610b0657600080fd5b50565b600081359050610b1881610af2565b92915050565b600060208284031215610b3457610b33610ade565b5b6000610b4284828501610b09565b91505092915050565b600081519050919050565b600082825260208201905092915050565b60005b83811015610b85578082015181840152602081019050610b6a565b60008484015250505050565b6000601f19601f8301169050919050565b6000610bad82610b4b565b610bb78185610b56565b9350610bc7818560208601610b67565b610bd081610b91565b840191505092915050565b610be481610ae8565b82525050565b600060c0820190508181036000830152610c048189610ba2565b90508181036020830152610c188188610ba2565b9050610c276040830187610bdb565b610c346060830186610bdb565b610c416080830185610bdb565b610c4e60a0830184610bdb565b979650505050505050565b6000602082019050610c6e6000830184610bdb565b92915050565b60008115159050919050565b610c8981610c74565b8114610c9457600080fd5b50565b600081359050610ca681610c80565b92915050565b60008060408385031215610cc357610cc2610ade565b5b6000610cd185828601610b09565b9250506020610ce285828601610c97565b9150509250929050565b600081519050919050565b600082825260208201905092915050565b6000819050602082019050919050565b600082825260208201905092915050565b6000610d3482610b4b565b610d3e8185610d18565b9350610d4e818560208601610b67565b610d5781610b91565b840191505092915050565b610d6b81610ae8565b82525050565b600060c0830160008301518482036000860152610d8e8282610d29565b91505060208301518482036020860152610da88282610d29565b9150506040830151610dbd6040860182610d62565b506060830151610dd06060860182610d62565b506080830151610de36080860182610d62565b5060a0830151610df660a0860182610d62565b508091505092915050565b6000610e0d8383610d71565b905092915050565b6000602082019050919050565b6000610e2d82610cec565b610e378185610cf7565b935083602082028501610e4985610d08565b8060005b85811015610e855784840389528151610e668582610e01565b9450610e7183610e15565b925060208a01995050600181019050610e4d565b50829750879550505050505092915050565b600081519050919050565b600082825260208201905092915050565b6000819050602082019050919050565b610ecc81610c74565b82525050565b6000610ede8383610ec3565b60208301905092915050565b6000602082019050919050565b6000610f0282610e97565b610f0c8185610ea2565b9350610f1783610eb3565b8060005b83811015610f48578151610f2f8882610ed2565b9750610f3a83610eea565b925050600181019050610f1b565b5085935050505092915050565b60006040820190508181036000830152610f6f8185610e22565b90508181036020830152610f838184610ef7565b90509392505050565b600080fd5b600080fd5b600080fd5b60008083601f840112610fb157610fb0610f8c565b5b8235905067ffffffffffffffff811115610fce57610fcd610f91565b5b602083019150836001820283011115610fea57610fe9610f96565b5b9250929050565b6000806000806000806080878903121561100e5761100d610ade565b5b600087013567ffffffffffffffff81111561102c5761102b610ae3565b5b61103889828a01610f9b565b9650965050602087013567ffffffffffffffff81111561105b5761105a610ae3565b5b61106789828a01610f9b565b9450945050604061107a89828a01610b09565b925050606061108b89828a01610b09565b9150509295509295509295565b600060c08301600083015184820360008601526110b58282610d29565b915050602083015184820360208601526110cf8282610d29565b91505060408301516110e46040860182610d62565b5060608301516110f76060860182610d62565b50608083015161110a6080860182610d62565b5060a083015161111d60a0860182610d62565b508091505092915050565b600060208201905081810360008301526111428184611098565b905092915050565b61115381610c74565b82525050565b600060208201905061116e600083018461114a565b92915050565b7f4e487b7100000000000000000000000000000000000000000000000000000000600052602260045260246000fd5b600060028204905060018216806111bb57607f821691505b6020821081036111ce576111cd611174565b5b50919050565b7f616c726561647920766f74656400000000000000000000000000000000000000600082015250565b600061120a600d83610b56565b9150611215826111d4565b602082019050919050565b60006020820190508181036000830152611239816111fd565b9050919050565b7f70726f706f73616c20646f65736e6f7420657869736974000000000000000000600082015250565b6000611276601783610b56565b915061128182611240565b602082019050919050565b600060208201905081810360008301526112a581611269565b9050919050565b7f766f74696e67206e6f7420737461727465640000000000000000000000000000600082015250565b60006112e2601283610b56565b91506112ed826112ac565b602082019050919050565b60006020820190508181036000830152611311816112d5565b9050919050565b7f766f74696e6720656e6465640000000000000000000000000000000000000000600082015250565b600061134e600c83610b56565b915061135982611318565b602082019050919050565b6000602082019050818103600083015261137d81611341565b9050919050565b7f4e487b7100000000000000000000000000000000000000000000000000000000600052601160045260246000fd5b60006113be82610ae8565b91507fffffffffffffffffffffffffffffffffffffffffffffffffffffffffffffffff82036113f0576113ef611384565b5b600182019050919050565b7f4e487b7100000000000000000000000000000000000000000000000000000000600052604160045260246000fd5b600061143582610ae8565b915061144083610ae8565b925082820390508181111561145857611457611384565b5b92915050565b7f4e487b7100000000000000000000000000000000000000000000000000000000600052603260045260246000fd5b600082905092915050565b60008190508160005260206000209050919050565b60006020601f8301049050919050565b600082821b905092915050565b6000600883026114fa7fffffffffffffffffffffffffffffffffffffffffffffffffffffffffffffffff826114bd565b61150486836114bd565b95508019841693508086168417925050509392505050565b6000819050919050565b600061154161153c61153784610ae8565b61151c565b610ae8565b9050919050565b6000819050919050565b61155b83611526565b61156f61156782611548565b8484546114ca565b825550505050565b600090565b611584611577565b61158f818484611552565b505050565b5b818110156115b3576115a860008261157c565b600181019050611595565b5050565b601f8211156115f8576115c981611498565b6115d2846114ad565b810160208510156115e1578190505b6115f56115ed856114ad565b830182611594565b50505b505050565b600082821c905092915050565b600061161b600019846008026115fd565b1980831691505092915050565b6000611634838361160a565b9150826002028217905092915050565b61164e838361148d565b67ffffffffffffffff811115611667576116666113fb565b5b61167182546111a3565b61167c8282856115b7565b6000601f8311600181146116ab5760008415611699578287013590505b6116a38582611628565b86555061170b565b601f1984166116b986611498565b60005b828110156116e1578489013582556001820191506020850194506020810190506116bc565b868310156116fe57848901356116fa601f89168261160a565b8355505b6001600288020188555050505b5050505050505056fea2646970667358221220cce9b75fa6f10bca44de58def03cc559fa2bae9d9b0227616ec3ca4f3426dd6c64736f6c63430008130033",
  "immutableReferences": {},
  "source": "// SPDX-License-Identifier: MIT\npragma solidity ^0.8.0;\n\ncontract Dao {\n    struct Proposal {\n        string name;\n        string description;\n        uint256 voteStartingDate;\n        uint256 voteEndingDate;\n        uint256 voteAganist;\n        uint256 voteFor;\n    }\n\n    mapping(uint256 => Proposal) public proposals;\n    mapping(uint256 => mapping(address => bool)) voters;\n    uint256 public proposalId;\n\n    function addVote(\n        string calldata _name,\n        string calldata description,\n        uint256 startingDate,\n        uint256 endingDate\n    ) public {\n        proposalId++;\n        uint256 id = proposalId;\n        Proposal storage proposal = proposals[id];\n        proposal.name = _name;\n        proposal.description = description;\n        proposal.voteStartingDate = startingDate;\n        proposal.voteEndingDate = endingDate;\n        proposal.voteAganist = 0;\n        proposal.voteFor = 0;\n    }\n\n    function voting(uint256 _proposalId, bool _vote) public {\n        require(!voters[_proposalId][msg.sender], \"already voted\");\n        require(proposalId >= _proposalId, \"proposal doesnot exisit\");\n        require(\n            block.timestamp >= proposals[_proposalId].voteStartingDate,\n            \"voting not started\"\n        );\n        require(\n            block.timestamp < proposals[_proposalId].voteEndingDate,\n            \"voting ended\"\n        );\n        voters[_proposalId][msg.sender] = true;\n        if (_vote) {\n            proposals[_proposalId].voteFor++;\n        } else {\n            proposals[_proposalId].voteAganist++;\n        }\n    }\n\n    function getProposal(uint256 _proposalId)\n        public\n        view\n        returns (Proposal memory)\n    {\n        return proposals[_proposalId];\n    }\n\n    function getProposals()\n        public\n        view\n        returns (Proposal[] memory, bool[] memory)\n    {\n        Proposal[] memory ret = new Proposal[](proposalId);\n        bool[] memory voted = new bool[](proposalId);\n\n        for (uint256 i = 1; i <= proposalId; i++) {\n            ret[i - 1] = proposals[i];\n            voted[i - 1] = voters[i][msg.sender];\n        }\n        return (ret, voted);\n    }\n\n    function isUserVoted(uint256 _id) public view returns (bool) {\n        return voters[_id][msg.sender];\n    }\n}\n",
  "sourcePath": "/home/user43/Desktop/work/future/Ano-Blocks-SmartContracts/contracts/dao.sol",
  "compiler": {
    "name": "solc",
    "version": "0.8.19+commit.7dd6d404.Emscripten.clang"
  },
  "schemaVersion": "3.4.13",
  "updatedAt": "2023-05-20T17:31:27.591Z",
  "networkType": "ethereum",
  "devdoc": {
    "kind": "dev",
    "methods": {},
    "version": 1
  },
  "userdoc": {
    "kind": "user",
    "methods": {},
    "version": 1
  }
}