{
  "contractName": "Dao",
  "abi": [
    {
      "inputs": [],
      "name": "proposalId",
      "outputs": [
        {
          "internalType": "uint256",
          "name": "",
          "type": "uint256"
        }
      ],
      "stateMutability": "view",
      "type": "function",
      "constant": true
    },
    {
      "inputs": [
        {
          "internalType": "uint256",
          "name": "",
          "type": "uint256"
        }
      ],
      "name": "proposals",
      "outputs": [
        {
          "internalType": "string",
          "name": "name",
          "type": "string"
        },
        {
          "internalType": "string",
          "name": "description",
          "type": "string"
        },
        {
          "internalType": "uint256",
          "name": "voteStartingDate",
          "type": "uint256"
        },
        {
          "internalType": "uint256",
          "name": "voteEndingDate",
          "type": "uint256"
        },
        {
          "internalType": "uint256",
          "name": "voteAganist",
          "type": "uint256"
        },
        {
          "internalType": "uint256",
          "name": "voteFor",
          "type": "uint256"
        }
      ],
      "stateMutability": "view",
      "type": "function",
      "constant": true
    },
    {
      "inputs": [
        {
          "internalType": "string",
          "name": "_name",
          "type": "string"
        },
        {
          "internalType": "string",
          "name": "description",
          "type": "string"
        },
        {
          "internalType": "uint256",
          "name": "startingDate",
          "type": "uint256"
        },
        {
          "internalType": "uint256",
          "name": "endingDate",
          "type": "uint256"
        }
      ],
      "name": "addVote",
      "outputs": [],
      "stateMutability": "nonpayable",
      "type": "function"
    },
    {
      "inputs": [
        {
          "internalType": "uint256",
          "name": "_proposalId",
          "type": "uint256"
        },
        {
          "internalType": "bool",
          "name": "_vote",
          "type": "bool"
        }
      ],
      "name": "voting",
      "outputs": [],
      "stateMutability": "nonpayable",
      "type": "function"
    },
    {
      "inputs": [
        {
          "internalType": "uint256",
          "name": "_proposalId",
          "type": "uint256"
        }
      ],
      "name": "getProposal",
      "outputs": [
        {
          "components": [
            {
              "internalType": "string",
              "name": "name",
              "type": "string"
            },
            {
              "internalType": "string",
              "name": "description",
              "type": "string"
            },
            {
              "internalType": "uint256",
              "name": "voteStartingDate",
              "type": "uint256"
            },
            {
              "internalType": "uint256",
              "name": "voteEndingDate",
              "type": "uint256"
            },
            {
              "internalType": "uint256",
              "name": "voteAganist",
              "type": "uint256"
            },
            {
              "internalType": "uint256",
              "name": "voteFor",
              "type": "uint256"
            }
          ],
          "internalType": "struct Dao.Proposal",
          "name": "",
          "type": "tuple"
        }
      ],
      "stateMutability": "view",
      "type": "function",
      "constant": true
    },
    {
      "inputs": [],
      "name": "getProposals",
      "outputs": [
        {
          "components": [
            {
              "internalType": "string",
              "name": "name",
              "type": "string"
            },
            {
              "internalType": "string",
              "name": "description",
              "type": "string"
            },
            {
              "internalType": "uint256",
              "name": "voteStartingDate",
              "type": "uint256"
            },
            {
              "internalType": "uint256",
              "name": "voteEndingDate",
              "type": "uint256"
            },
            {
              "internalType": "uint256",
              "name": "voteAganist",
              "type": "uint256"
            },
            {
              "internalType": "uint256",
              "name": "voteFor",
              "type": "uint256"
            }
          ],
          "internalType": "struct Dao.Proposal[]",
          "name": "",
          "type": "tuple[]"
        }
      ],
      "stateMutability": "view",
      "type": "function",
      "constant": true
    },
    {
      "inputs": [],
      "name": "isUserVoted",
      "outputs": [
        {
          "internalType": "bool[]",
          "name": "",
          "type": "bool[]"
        }
      ],
      "stateMutability": "view",
      "type": "function",
      "constant": true
    }
  ],
  "bytecode": "0x608060405234801561001057600080fd5b506116da806100206000396000f3fe608060405234801561001057600080fd5b506004361061007d5760003560e01c80635a4f459a1161005b5780635a4f459a146100f357806362564c481461010f578063c5ff1b441461012d578063c7f758a8146101495761007d565b8063013cf08b1461008257806327e42ab7146100b75780632dfca445146100d5575b600080fd5b61009c60048036038101906100979190610acb565b610179565b6040516100ae96959493929190610b97565b60405180910390f35b6100bf6102c5565b6040516100cc9190610cd0565b60405180910390f35b6100dd6103d0565b6040516100ea9190610cf2565b60405180910390f35b61010d60048036038101906101089190610d39565b6103d6565b005b610117610636565b6040516101249190610f24565b60405180910390f35b61014760048036038101906101429190610fab565b610850565b005b610163600480360381019061015e9190610acb565b6108dd565b60405161017091906110e2565b60405180910390f35b600060205280600052604060002060009150905080600001805461019c90611133565b80601f01602080910402602001604051908101604052809291908181526020018280546101c890611133565b80156102155780601f106101ea57610100808354040283529160200191610215565b820191906000526020600020905b8154815290600101906020018083116101f857829003601f168201915b50505050509080600101805461022a90611133565b80601f016020809104026020016040519081016040528092919081815260200182805461025690611133565b80156102a35780601f10610278576101008083540402835291602001916102a3565b820191906000526020600020905b81548152906001019060200180831161028657829003601f168201915b5050505050908060020154908060030154908060040154908060050154905086565b6060600060025467ffffffffffffffff8111156102e5576102e4611164565b5b6040519080825280602002602001820160405280156103135781602001602082028036833780820191505090505b5090506000600190505b60025481116103c8576001600082815260200190815260200160002060003373ffffffffffffffffffffffffffffffffffffffff1673ffffffffffffffffffffffffffffffffffffffff16815260200190815260200160002060009054906101000a900460ff168260018361039291906111c2565b815181106103a3576103a26111f6565b5b60200260200101901515908115158152505080806103c090611225565b91505061031d565b508091505090565b60025481565b6001600083815260200190815260200160002060003373ffffffffffffffffffffffffffffffffffffffff1673ffffffffffffffffffffffffffffffffffffffff16815260200190815260200160002060009054906101000a900460ff1615610474576040517f08c379a000000000000000000000000000000000000000000000000000000000815260040161046b906112b9565b60405180910390fd5b8160025410156104b9576040517f08c379a00000000000000000000000000000000000000000000000000000000081526004016104b090611325565b60405180910390fd5b60008083815260200190815260200160002060020154421015610511576040517f08c379a000000000000000000000000000000000000000000000000000000000815260040161050890611391565b60405180910390fd5b600080838152602001908152602001600020600301544210610568576040517f08c379a000000000000000000000000000000000000000000000000000000000815260040161055f906113fd565b60405180910390fd5b600180600084815260200190815260200160002060003373ffffffffffffffffffffffffffffffffffffffff1673ffffffffffffffffffffffffffffffffffffffff16815260200190815260200160002060006101000a81548160ff02191690831515021790555080156106065760008083815260200190815260200160002060050160008154809291906105fc90611225565b9190505550610632565b600080838152602001908152602001600020600401600081548092919061062c90611225565b91905055505b5050565b6060600060025467ffffffffffffffff81111561065657610655611164565b5b60405190808252806020026020018201604052801561068f57816020015b61067c610a55565b8152602001906001900390816106745790505b5090506000600190505b6002548111610848576000808281526020019081526020016000206040518060c00160405290816000820180546106cf90611133565b80601f01602080910402602001604051908101604052809291908181526020018280546106fb90611133565b80156107485780601f1061071d57610100808354040283529160200191610748565b820191906000526020600020905b81548152906001019060200180831161072b57829003601f168201915b5050505050815260200160018201805461076190611133565b80601f016020809104026020016040519081016040528092919081815260200182805461078d90611133565b80156107da5780601f106107af576101008083540402835291602001916107da565b820191906000526020600020905b8154815290600101906020018083116107bd57829003601f168201915b505050505081526020016002820154815260200160038201548152602001600482015481526020016005820154815250508260018361081991906111c2565b8151811061082a576108296111f6565b5b6020026020010181905250808061084090611225565b915050610699565b508091505090565b6002600081548092919061086390611225565b9190505550600060025490506000806000838152602001908152602001600020905087878260000191826108989291906115d4565b5085858260010191826108ac9291906115d4565b5083816002018190555082816003018190555060008160040181905550600081600501819055505050505050505050565b6108e5610a55565b6000808381526020019081526020016000206040518060c001604052908160008201805461091290611133565b80601f016020809104026020016040519081016040528092919081815260200182805461093e90611133565b801561098b5780601f106109605761010080835404028352916020019161098b565b820191906000526020600020905b81548152906001019060200180831161096e57829003601f168201915b505050505081526020016001820180546109a490611133565b80601f01602080910402602001604051908101604052809291908181526020018280546109d090611133565b8015610a1d5780601f106109f257610100808354040283529160200191610a1d565b820191906000526020600020905b815481529060010190602001808311610a0057829003601f168201915b505050505081526020016002820154815260200160038201548152602001600482015481526020016005820154815250509050919050565b6040518060c001604052806060815260200160608152602001600081526020016000815260200160008152602001600081525090565b600080fd5b600080fd5b6000819050919050565b610aa881610a95565b8114610ab357600080fd5b50565b600081359050610ac581610a9f565b92915050565b600060208284031215610ae157610ae0610a8b565b5b6000610aef84828501610ab6565b91505092915050565b600081519050919050565b600082825260208201905092915050565b60005b83811015610b32578082015181840152602081019050610b17565b60008484015250505050565b6000601f19601f8301169050919050565b6000610b5a82610af8565b610b648185610b03565b9350610b74818560208601610b14565b610b7d81610b3e565b840191505092915050565b610b9181610a95565b82525050565b600060c0820190508181036000830152610bb18189610b4f565b90508181036020830152610bc58188610b4f565b9050610bd46040830187610b88565b610be16060830186610b88565b610bee6080830185610b88565b610bfb60a0830184610b88565b979650505050505050565b600081519050919050565b600082825260208201905092915050565b6000819050602082019050919050565b60008115159050919050565b610c4781610c32565b82525050565b6000610c598383610c3e565b60208301905092915050565b6000602082019050919050565b6000610c7d82610c06565b610c878185610c11565b9350610c9283610c22565b8060005b83811015610cc3578151610caa8882610c4d565b9750610cb583610c65565b925050600181019050610c96565b5085935050505092915050565b60006020820190508181036000830152610cea8184610c72565b905092915050565b6000602082019050610d076000830184610b88565b92915050565b610d1681610c32565b8114610d2157600080fd5b50565b600081359050610d3381610d0d565b92915050565b60008060408385031215610d5057610d4f610a8b565b5b6000610d5e85828601610ab6565b9250506020610d6f85828601610d24565b9150509250929050565b600081519050919050565b600082825260208201905092915050565b6000819050602082019050919050565b600082825260208201905092915050565b6000610dc182610af8565b610dcb8185610da5565b9350610ddb818560208601610b14565b610de481610b3e565b840191505092915050565b610df881610a95565b82525050565b600060c0830160008301518482036000860152610e1b8282610db6565b91505060208301518482036020860152610e358282610db6565b9150506040830151610e4a6040860182610def565b506060830151610e5d6060860182610def565b506080830151610e706080860182610def565b5060a0830151610e8360a0860182610def565b508091505092915050565b6000610e9a8383610dfe565b905092915050565b6000602082019050919050565b6000610eba82610d79565b610ec48185610d84565b935083602082028501610ed685610d95565b8060005b85811015610f125784840389528151610ef38582610e8e565b9450610efe83610ea2565b925060208a01995050600181019050610eda565b50829750879550505050505092915050565b60006020820190508181036000830152610f3e8184610eaf565b905092915050565b600080fd5b600080fd5b600080fd5b60008083601f840112610f6b57610f6a610f46565b5b8235905067ffffffffffffffff811115610f8857610f87610f4b565b5b602083019150836001820283011115610fa457610fa3610f50565b5b9250929050565b60008060008060008060808789031215610fc857610fc7610a8b565b5b600087013567ffffffffffffffff811115610fe657610fe5610a90565b5b610ff289828a01610f55565b9650965050602087013567ffffffffffffffff81111561101557611014610a90565b5b61102189828a01610f55565b9450945050604061103489828a01610ab6565b925050606061104589828a01610ab6565b9150509295509295509295565b600060c083016000830151848203600086015261106f8282610db6565b915050602083015184820360208601526110898282610db6565b915050604083015161109e6040860182610def565b5060608301516110b16060860182610def565b5060808301516110c46080860182610def565b5060a08301516110d760a0860182610def565b508091505092915050565b600060208201905081810360008301526110fc8184611052565b905092915050565b7f4e487b7100000000000000000000000000000000000000000000000000000000600052602260045260246000fd5b6000600282049050600182168061114b57607f821691505b60208210810361115e5761115d611104565b5b50919050565b7f4e487b7100000000000000000000000000000000000000000000000000000000600052604160045260246000fd5b7f4e487b7100000000000000000000000000000000000000000000000000000000600052601160045260246000fd5b60006111cd82610a95565b91506111d883610a95565b92508282039050818111156111f0576111ef611193565b5b92915050565b7f4e487b7100000000000000000000000000000000000000000000000000000000600052603260045260246000fd5b600061123082610a95565b91507fffffffffffffffffffffffffffffffffffffffffffffffffffffffffffffffff820361126257611261611193565b5b600182019050919050565b7f616c726561647920766f74656400000000000000000000000000000000000000600082015250565b60006112a3600d83610b03565b91506112ae8261126d565b602082019050919050565b600060208201905081810360008301526112d281611296565b9050919050565b7f70726f706f73616c20646f65736e6f7420657869736974000000000000000000600082015250565b600061130f601783610b03565b915061131a826112d9565b602082019050919050565b6000602082019050818103600083015261133e81611302565b9050919050565b7f766f74696e67206e6f7420737461727465640000000000000000000000000000600082015250565b600061137b601283610b03565b915061138682611345565b602082019050919050565b600060208201905081810360008301526113aa8161136e565b9050919050565b7f766f74696e6720656e6465640000000000000000000000000000000000000000600082015250565b60006113e7600c83610b03565b91506113f2826113b1565b602082019050919050565b60006020820190508181036000830152611416816113da565b9050919050565b600082905092915050565b60008190508160005260206000209050919050565b60006020601f8301049050919050565b600082821b905092915050565b60006008830261148a7fffffffffffffffffffffffffffffffffffffffffffffffffffffffffffffffff8261144d565b611494868361144d565b95508019841693508086168417925050509392505050565b6000819050919050565b60006114d16114cc6114c784610a95565b6114ac565b610a95565b9050919050565b6000819050919050565b6114eb836114b6565b6114ff6114f7826114d8565b84845461145a565b825550505050565b600090565b611514611507565b61151f8184846114e2565b505050565b5b818110156115435761153860008261150c565b600181019050611525565b5050565b601f8211156115885761155981611428565b6115628461143d565b81016020851015611571578190505b61158561157d8561143d565b830182611524565b50505b505050565b600082821c905092915050565b60006115ab6000198460080261158d565b1980831691505092915050565b60006115c4838361159a565b9150826002028217905092915050565b6115de838361141d565b67ffffffffffffffff8111156115f7576115f6611164565b5b6116018254611133565b61160c828285611547565b6000601f83116001811461163b5760008415611629578287013590505b61163385826115b8565b86555061169b565b601f19841661164986611428565b60005b828110156116715784890135825560018201915060208501945060208101905061164c565b8683101561168e578489013561168a601f89168261159a565b8355505b6001600288020188555050505b5050505050505056fea2646970667358221220fabfec1d8b0a2b4c3823bb8f0f7c33c10529235fff00dde573af5d8c0d99ffcf64736f6c63430008130033",
  "immutableReferences": {},
  "source": "// SPDX-License-Identifier: MIT\npragma solidity ^0.8.0;\n\ncontract Dao {\n    struct Proposal {\n        string name;\n        string description;\n        uint256 voteStartingDate;\n        uint256 voteEndingDate;\n        uint256 voteAganist;\n        uint256 voteFor;\n    }\n\n    mapping(uint256 => Proposal) public proposals;\n    mapping(uint256 => mapping(address => bool)) voters;\n    uint256 public proposalId;\n\n    function addVote(\n        string calldata _name,\n        string calldata description,\n        uint256 startingDate,\n        uint256 endingDate\n    ) public {\n        proposalId++;\n        uint256 id = proposalId;\n        Proposal storage proposal = proposals[id];\n        proposal.name = _name;\n        proposal.description = description;\n        proposal.voteStartingDate = startingDate;\n        proposal.voteEndingDate = endingDate;\n        proposal.voteAganist = 0;\n        proposal.voteFor = 0;\n    }\n\n    function voting(uint256 _proposalId, bool _vote) public {\n        require(!voters[_proposalId][msg.sender], \"already voted\");\n        require(proposalId >= _proposalId, \"proposal doesnot exisit\");\n        require(\n            block.timestamp >= proposals[_proposalId].voteStartingDate,\n            \"voting not started\"\n        );\n        require(\n            block.timestamp < proposals[_proposalId].voteEndingDate,\n            \"voting ended\"\n        );\n        voters[_proposalId][msg.sender] = true;\n        if (_vote) {\n            proposals[_proposalId].voteFor++;\n        } else {\n            proposals[_proposalId].voteAganist++;\n        }\n    }\n\n    function getProposal(uint256 _proposalId)\n        public\n        view\n        returns (Proposal memory)\n    {\n        return proposals[_proposalId];\n    }\n\n    function getProposals() public view returns (Proposal[] memory) {\n        Proposal[] memory ret = new Proposal[](proposalId);\n\n        for (uint256 i = 1; i <= proposalId; i++) {\n            ret[i - 1] = proposals[i];\n        }\n        return ret;\n    }\n\n    function isUserVoted() public view returns (bool[] memory) {\n        bool[] memory ret = new bool[](proposalId);\n\n        for (uint256 i = 1; i <= proposalId; i++) {\n            ret[i - 1] = voters[i][msg.sender];\n        }\n        return ret;\n    }\n}\n",
  "sourcePath": "/home/user43/Desktop/work/future/Ano-Blocks-SmartContracts/contracts/dao.sol",
  "compiler": {
    "name": "solc",
    "version": "0.8.19+commit.7dd6d404.Emscripten.clang"
  },
  "schemaVersion": "3.4.13",
  "updatedAt": "2023-05-20T18:14:48.865Z",
  "networkType": "ethereum",
  "devdoc": {
    "kind": "dev",
    "methods": {},
    "version": 1
  },
  "userdoc": {
    "kind": "user",
    "methods": {},
    "version": 1
  }
}