{
  "contractName": "Dao",
  "abi": [
    {
      "inputs": [],
      "name": "proposalId",
      "outputs": [
        {
          "internalType": "uint256",
          "name": "",
          "type": "uint256"
        }
      ],
      "stateMutability": "view",
      "type": "function",
      "constant": true
    },
    {
      "inputs": [
        {
          "internalType": "uint256",
          "name": "",
          "type": "uint256"
        }
      ],
      "name": "proposals",
      "outputs": [
        {
          "internalType": "string",
          "name": "name",
          "type": "string"
        },
        {
          "internalType": "string",
          "name": "description",
          "type": "string"
        },
        {
          "internalType": "uint256",
          "name": "voteStartingDate",
          "type": "uint256"
        },
        {
          "internalType": "uint256",
          "name": "voteEndingDate",
          "type": "uint256"
        },
        {
          "internalType": "uint256",
          "name": "voteAganist",
          "type": "uint256"
        },
        {
          "internalType": "uint256",
          "name": "voteFor",
          "type": "uint256"
        }
      ],
      "stateMutability": "view",
      "type": "function",
      "constant": true
    },
    {
      "inputs": [
        {
          "internalType": "string",
          "name": "_name",
          "type": "string"
        },
        {
          "internalType": "string",
          "name": "description",
          "type": "string"
        },
        {
          "internalType": "uint256",
          "name": "startingDate",
          "type": "uint256"
        },
        {
          "internalType": "uint256",
          "name": "endingDate",
          "type": "uint256"
        }
      ],
      "name": "addVote",
      "outputs": [],
      "stateMutability": "nonpayable",
      "type": "function"
    },
    {
      "inputs": [
        {
          "internalType": "uint256",
          "name": "_proposalId",
          "type": "uint256"
        },
        {
          "internalType": "bool",
          "name": "_vote",
          "type": "bool"
        }
      ],
      "name": "voting",
      "outputs": [],
      "stateMutability": "nonpayable",
      "type": "function"
    },
    {
      "inputs": [
        {
          "internalType": "uint256",
          "name": "_proposalId",
          "type": "uint256"
        }
      ],
      "name": "getProposal",
      "outputs": [
        {
          "components": [
            {
              "internalType": "string",
              "name": "name",
              "type": "string"
            },
            {
              "internalType": "string",
              "name": "description",
              "type": "string"
            },
            {
              "internalType": "uint256",
              "name": "voteStartingDate",
              "type": "uint256"
            },
            {
              "internalType": "uint256",
              "name": "voteEndingDate",
              "type": "uint256"
            },
            {
              "internalType": "uint256",
              "name": "voteAganist",
              "type": "uint256"
            },
            {
              "internalType": "uint256",
              "name": "voteFor",
              "type": "uint256"
            }
          ],
          "internalType": "struct Dao.Proposal",
          "name": "",
          "type": "tuple"
        }
      ],
      "stateMutability": "view",
      "type": "function",
      "constant": true
    },
    {
      "inputs": [],
      "name": "getProposals",
      "outputs": [
        {
          "components": [
            {
              "internalType": "string",
              "name": "name",
              "type": "string"
            },
            {
              "internalType": "string",
              "name": "description",
              "type": "string"
            },
            {
              "internalType": "uint256",
              "name": "voteStartingDate",
              "type": "uint256"
            },
            {
              "internalType": "uint256",
              "name": "voteEndingDate",
              "type": "uint256"
            },
            {
              "internalType": "uint256",
              "name": "voteAganist",
              "type": "uint256"
            },
            {
              "internalType": "uint256",
              "name": "voteFor",
              "type": "uint256"
            },
            {
              "internalType": "bool",
              "name": "status",
              "type": "bool"
            }
          ],
          "internalType": "struct Dao.ResponseProposal[]",
          "name": "",
          "type": "tuple[]"
        }
      ],
      "stateMutability": "view",
      "type": "function",
      "constant": true
    },
    {
      "inputs": [
        {
          "internalType": "uint256",
          "name": "_id",
          "type": "uint256"
        }
      ],
      "name": "isUserVoted",
      "outputs": [
        {
          "internalType": "bool",
          "name": "",
          "type": "bool"
        }
      ],
      "stateMutability": "view",
      "type": "function",
      "constant": true
    }
  ],
  "bytecode": "0x608060405234801561001057600080fd5b5061179f806100206000396000f3fe608060405234801561001057600080fd5b506004361061007d5760003560e01c806362564c481161005b57806362564c48146100f1578063c5ff1b441461010f578063c7f758a81461012b578063cc7438e51461015b5761007d565b8063013cf08b146100825780632dfca445146100b75780635a4f459a146100d5575b600080fd5b61009c60048036038101906100979190610c24565b61018b565b6040516100ae96959493929190610cf0565b60405180910390f35b6100bf6102d7565b6040516100cc9190610d5f565b60405180910390f35b6100ef60048036038101906100ea9190610db2565b6102dd565b005b6100f961053d565b6040516101069190610fbf565b60405180910390f35b61012960048036038101906101249190611046565b610903565b005b61014560048036038101906101409190610c24565b610990565b604051610152919061117d565b60405180910390f35b61017560048036038101906101709190610c24565b610b08565b60405161018291906111ae565b60405180910390f35b60006020528060005260406000206000915090508060000180546101ae906111f8565b80601f01602080910402602001604051908101604052809291908181526020018280546101da906111f8565b80156102275780601f106101fc57610100808354040283529160200191610227565b820191906000526020600020905b81548152906001019060200180831161020a57829003601f168201915b50505050509080600101805461023c906111f8565b80601f0160208091040260200160405190810160405280929190818152602001828054610268906111f8565b80156102b55780601f1061028a576101008083540402835291602001916102b5565b820191906000526020600020905b81548152906001019060200180831161029857829003601f168201915b5050505050908060020154908060030154908060040154908060050154905086565b60025481565b6001600083815260200190815260200160002060003373ffffffffffffffffffffffffffffffffffffffff1673ffffffffffffffffffffffffffffffffffffffff16815260200190815260200160002060009054906101000a900460ff161561037b576040517f08c379a000000000000000000000000000000000000000000000000000000000815260040161037290611275565b60405180910390fd5b8160025410156103c0576040517f08c379a00000000000000000000000000000000000000000000000000000000081526004016103b7906112e1565b60405180910390fd5b60008083815260200190815260200160002060020154421015610418576040517f08c379a000000000000000000000000000000000000000000000000000000000815260040161040f9061134d565b60405180910390fd5b60008083815260200190815260200160002060030154421061046f576040517f08c379a0000000000000000000000000000000000000000000000000000000008152600401610466906113b9565b60405180910390fd5b600180600084815260200190815260200160002060003373ffffffffffffffffffffffffffffffffffffffff1673ffffffffffffffffffffffffffffffffffffffff16815260200190815260200160002060006101000a81548160ff021916908315150217905550801561050d57600080838152602001908152602001600020600501600081548092919061050390611408565b9190505550610539565b600080838152602001908152602001600020600401600081548092919061053390611408565b91905055505b5050565b6060600060025467ffffffffffffffff81111561055d5761055c611450565b5b60405190808252806020026020018201604052801561059657816020015b610583610b6f565b81526020019060019003908161057b5790505b5090506000600190505b60025481116108fb5760008082815260200190815260200160002060000180546105c9906111f8565b80601f01602080910402602001604051908101604052809291908181526020018280546105f5906111f8565b80156106425780601f1061061757610100808354040283529160200191610642565b820191906000526020600020905b81548152906001019060200180831161062557829003601f168201915b505050505082600183610655919061147f565b81518110610666576106656114b3565b5b6020026020010151600001819052506000808281526020019081526020016000206001018054610695906111f8565b80601f01602080910402602001604051908101604052809291908181526020018280546106c1906111f8565b801561070e5780601f106106e35761010080835404028352916020019161070e565b820191906000526020600020905b8154815290600101906020018083116106f157829003601f168201915b505050505082600183610721919061147f565b81518110610732576107316114b3565b5b6020026020010151602001819052506000808281526020019081526020016000206002015482600183610765919061147f565b81518110610776576107756114b3565b5b6020026020010151604001818152505060008082815260200190815260200160002060030154826001836107aa919061147f565b815181106107bb576107ba6114b3565b5b6020026020010151606001818152505060008082815260200190815260200160002060050154826001836107ef919061147f565b81518110610800576107ff6114b3565b5b602002602001015160a00181815250506000808281526020019081526020016000206004015482600183610834919061147f565b81518110610845576108446114b3565b5b602002602001015160800181815250506001600082815260200190815260200160002060003373ffffffffffffffffffffffffffffffffffffffff1673ffffffffffffffffffffffffffffffffffffffff16815260200190815260200160002060009054906101000a900460ff16826001836108c1919061147f565b815181106108d2576108d16114b3565b5b602002602001015160c001901515908115158152505080806108f390611408565b9150506105a0565b508091505090565b6002600081548092919061091690611408565b91905055506000600254905060008060008381526020019081526020016000209050878782600001918261094b929190611699565b50858582600101918261095f929190611699565b5083816002018190555082816003018190555060008160040181905550600081600501819055505050505050505050565b610998610bae565b6000808381526020019081526020016000206040518060c00160405290816000820180546109c5906111f8565b80601f01602080910402602001604051908101604052809291908181526020018280546109f1906111f8565b8015610a3e5780601f10610a1357610100808354040283529160200191610a3e565b820191906000526020600020905b815481529060010190602001808311610a2157829003601f168201915b50505050508152602001600182018054610a57906111f8565b80601f0160208091040260200160405190810160405280929190818152602001828054610a83906111f8565b8015610ad05780601f10610aa557610100808354040283529160200191610ad0565b820191906000526020600020905b815481529060010190602001808311610ab357829003601f168201915b505050505081526020016002820154815260200160038201548152602001600482015481526020016005820154815250509050919050565b60006001600083815260200190815260200160002060003373ffffffffffffffffffffffffffffffffffffffff1673ffffffffffffffffffffffffffffffffffffffff16815260200190815260200160002060009054906101000a900460ff169050919050565b6040518060e001604052806060815260200160608152602001600081526020016000815260200160008152602001600081526020016000151581525090565b6040518060c001604052806060815260200160608152602001600081526020016000815260200160008152602001600081525090565b600080fd5b600080fd5b6000819050919050565b610c0181610bee565b8114610c0c57600080fd5b50565b600081359050610c1e81610bf8565b92915050565b600060208284031215610c3a57610c39610be4565b5b6000610c4884828501610c0f565b91505092915050565b600081519050919050565b600082825260208201905092915050565b60005b83811015610c8b578082015181840152602081019050610c70565b60008484015250505050565b6000601f19601f8301169050919050565b6000610cb382610c51565b610cbd8185610c5c565b9350610ccd818560208601610c6d565b610cd681610c97565b840191505092915050565b610cea81610bee565b82525050565b600060c0820190508181036000830152610d0a8189610ca8565b90508181036020830152610d1e8188610ca8565b9050610d2d6040830187610ce1565b610d3a6060830186610ce1565b610d476080830185610ce1565b610d5460a0830184610ce1565b979650505050505050565b6000602082019050610d746000830184610ce1565b92915050565b60008115159050919050565b610d8f81610d7a565b8114610d9a57600080fd5b50565b600081359050610dac81610d86565b92915050565b60008060408385031215610dc957610dc8610be4565b5b6000610dd785828601610c0f565b9250506020610de885828601610d9d565b9150509250929050565b600081519050919050565b600082825260208201905092915050565b6000819050602082019050919050565b600082825260208201905092915050565b6000610e3a82610c51565b610e448185610e1e565b9350610e54818560208601610c6d565b610e5d81610c97565b840191505092915050565b610e7181610bee565b82525050565b610e8081610d7a565b82525050565b600060e0830160008301518482036000860152610ea38282610e2f565b91505060208301518482036020860152610ebd8282610e2f565b9150506040830151610ed26040860182610e68565b506060830151610ee56060860182610e68565b506080830151610ef86080860182610e68565b5060a0830151610f0b60a0860182610e68565b5060c0830151610f1e60c0860182610e77565b508091505092915050565b6000610f358383610e86565b905092915050565b6000602082019050919050565b6000610f5582610df2565b610f5f8185610dfd565b935083602082028501610f7185610e0e565b8060005b85811015610fad5784840389528151610f8e8582610f29565b9450610f9983610f3d565b925060208a01995050600181019050610f75565b50829750879550505050505092915050565b60006020820190508181036000830152610fd98184610f4a565b905092915050565b600080fd5b600080fd5b600080fd5b60008083601f84011261100657611005610fe1565b5b8235905067ffffffffffffffff81111561102357611022610fe6565b5b60208301915083600182028301111561103f5761103e610feb565b5b9250929050565b6000806000806000806080878903121561106357611062610be4565b5b600087013567ffffffffffffffff81111561108157611080610be9565b5b61108d89828a01610ff0565b9650965050602087013567ffffffffffffffff8111156110b0576110af610be9565b5b6110bc89828a01610ff0565b945094505060406110cf89828a01610c0f565b92505060606110e089828a01610c0f565b9150509295509295509295565b600060c083016000830151848203600086015261110a8282610e2f565b915050602083015184820360208601526111248282610e2f565b91505060408301516111396040860182610e68565b50606083015161114c6060860182610e68565b50608083015161115f6080860182610e68565b5060a083015161117260a0860182610e68565b508091505092915050565b6000602082019050818103600083015261119781846110ed565b905092915050565b6111a881610d7a565b82525050565b60006020820190506111c3600083018461119f565b92915050565b7f4e487b7100000000000000000000000000000000000000000000000000000000600052602260045260246000fd5b6000600282049050600182168061121057607f821691505b602082108103611223576112226111c9565b5b50919050565b7f616c726561647920766f74656400000000000000000000000000000000000000600082015250565b600061125f600d83610c5c565b915061126a82611229565b602082019050919050565b6000602082019050818103600083015261128e81611252565b9050919050565b7f70726f706f73616c20646f65736e6f7420657869736974000000000000000000600082015250565b60006112cb601783610c5c565b91506112d682611295565b602082019050919050565b600060208201905081810360008301526112fa816112be565b9050919050565b7f766f74696e67206e6f7420737461727465640000000000000000000000000000600082015250565b6000611337601283610c5c565b915061134282611301565b602082019050919050565b600060208201905081810360008301526113668161132a565b9050919050565b7f766f74696e6720656e6465640000000000000000000000000000000000000000600082015250565b60006113a3600c83610c5c565b91506113ae8261136d565b602082019050919050565b600060208201905081810360008301526113d281611396565b9050919050565b7f4e487b7100000000000000000000000000000000000000000000000000000000600052601160045260246000fd5b600061141382610bee565b91507fffffffffffffffffffffffffffffffffffffffffffffffffffffffffffffffff8203611445576114446113d9565b5b600182019050919050565b7f4e487b7100000000000000000000000000000000000000000000000000000000600052604160045260246000fd5b600061148a82610bee565b915061149583610bee565b92508282039050818111156114ad576114ac6113d9565b5b92915050565b7f4e487b7100000000000000000000000000000000000000000000000000000000600052603260045260246000fd5b600082905092915050565b60008190508160005260206000209050919050565b60006020601f8301049050919050565b600082821b905092915050565b60006008830261154f7fffffffffffffffffffffffffffffffffffffffffffffffffffffffffffffffff82611512565b6115598683611512565b95508019841693508086168417925050509392505050565b6000819050919050565b600061159661159161158c84610bee565b611571565b610bee565b9050919050565b6000819050919050565b6115b08361157b565b6115c46115bc8261159d565b84845461151f565b825550505050565b600090565b6115d96115cc565b6115e48184846115a7565b505050565b5b81811015611608576115fd6000826115d1565b6001810190506115ea565b5050565b601f82111561164d5761161e816114ed565b61162784611502565b81016020851015611636578190505b61164a61164285611502565b8301826115e9565b50505b505050565b600082821c905092915050565b600061167060001984600802611652565b1980831691505092915050565b6000611689838361165f565b9150826002028217905092915050565b6116a383836114e2565b67ffffffffffffffff8111156116bc576116bb611450565b5b6116c682546111f8565b6116d182828561160c565b6000601f83116001811461170057600084156116ee578287013590505b6116f8858261167d565b865550611760565b601f19841661170e866114ed565b60005b8281101561173657848901358255600182019150602085019450602081019050611711565b86831015611753578489013561174f601f89168261165f565b8355505b6001600288020188555050505b5050505050505056fea2646970667358221220261fe80942f525e09498dd706b642bcccff4e00862310ad36c843a7877acd10464736f6c63430008130033",
  "immutableReferences": {},
  "source": "// SPDX-License-Identifier: MIT\npragma solidity ^0.8.0;\n\ncontract Dao {\n    struct Proposal {\n        string name;\n        string description;\n        uint256 voteStartingDate;\n        uint256 voteEndingDate;\n        uint256 voteAganist;\n        uint256 voteFor;\n    }\n\n    struct ResponseProposal {\n        string name;\n        string description;\n        uint256 voteStartingDate;\n        uint256 voteEndingDate;\n        uint256 voteAganist;\n        uint256 voteFor;\n        bool status;\n    }\n\n    mapping(uint256 => Proposal) public proposals;\n    mapping(uint256 => mapping(address => bool)) voters;\n    uint256 public proposalId;\n\n    function addVote(\n        string calldata _name,\n        string calldata description,\n        uint256 startingDate,\n        uint256 endingDate\n    ) public {\n        proposalId++;\n        uint256 id = proposalId;\n        Proposal storage proposal = proposals[id];\n        proposal.name = _name;\n        proposal.description = description;\n        proposal.voteStartingDate = startingDate;\n        proposal.voteEndingDate = endingDate;\n        proposal.voteAganist = 0;\n        proposal.voteFor = 0;\n    }\n\n    function voting(uint256 _proposalId, bool _vote) public {\n        require(!voters[_proposalId][msg.sender], \"already voted\");\n        require(proposalId >= _proposalId, \"proposal doesnot exisit\");\n        require(\n            block.timestamp >= proposals[_proposalId].voteStartingDate,\n            \"voting not started\"\n        );\n        require(\n            block.timestamp < proposals[_proposalId].voteEndingDate,\n            \"voting ended\"\n        );\n        voters[_proposalId][msg.sender] = true;\n        if (_vote) {\n            proposals[_proposalId].voteFor++;\n        } else {\n            proposals[_proposalId].voteAganist++;\n        }\n    }\n\n    function getProposal(uint256 _proposalId)\n        public\n        view\n        returns (Proposal memory)\n    {\n        return proposals[_proposalId];\n    }\n\n    function getProposals() public view returns (ResponseProposal[] memory) {\n        ResponseProposal[] memory ret = new ResponseProposal[](proposalId);\n\n        for (uint256 i = 1; i <= proposalId; i++) {\n            ret[i - 1].name = proposals[i].name;\n            ret[i - 1].description = proposals[i].description;\n            ret[i - 1].voteStartingDate = proposals[i].voteStartingDate;\n            ret[i - 1].voteEndingDate = proposals[i].voteEndingDate;\n            ret[i - 1].voteFor = proposals[i].voteFor;\n            ret[i - 1].voteAganist = proposals[i].voteAganist;\n            ret[i - 1].status = voters[i][msg.sender];\n        }\n        return ret;\n    }\n\n    function isUserVoted(uint256 _id) public view returns (bool) {\n        return voters[_id][msg.sender];\n    }\n}\n",
  "sourcePath": "/home/user43/Desktop/work/future/Ano-Blocks-SmartContracts/contracts/dao.sol",
  "compiler": {
    "name": "solc",
    "version": "0.8.19+commit.7dd6d404.Emscripten.clang"
  },
  "schemaVersion": "3.4.13",
  "updatedAt": "2023-06-11T09:25:41.585Z",
  "networkType": "ethereum",
  "devdoc": {
    "kind": "dev",
    "methods": {},
    "version": 1
  },
  "userdoc": {
    "kind": "user",
    "methods": {},
    "version": 1
  }
}