{
  "contractName": "Etbc",
  "abi": [
    {
      "inputs": [
        {
          "internalType": "contract IERC20",
          "name": "_collateralToken",
          "type": "address"
        },
        {
          "internalType": "uint256",
          "name": "_collateralRatio",
          "type": "uint256"
        }
      ],
      "stateMutability": "nonpayable",
      "type": "constructor"
    },
    {
      "anonymous": false,
      "inputs": [
        {
          "indexed": true,
          "internalType": "address",
          "name": "owner",
          "type": "address"
        },
        {
          "indexed": true,
          "internalType": "address",
          "name": "spender",
          "type": "address"
        },
        {
          "indexed": false,
          "internalType": "uint256",
          "name": "value",
          "type": "uint256"
        }
      ],
      "name": "Approval",
      "type": "event"
    },
    {
      "anonymous": false,
      "inputs": [
        {
          "indexed": true,
          "internalType": "address",
          "name": "to",
          "type": "address"
        },
        {
          "indexed": false,
          "internalType": "uint256",
          "name": "collateralAmount",
          "type": "uint256"
        },
        {
          "indexed": false,
          "internalType": "uint256",
          "name": "stablecoinAmount",
          "type": "uint256"
        }
      ],
      "name": "Mint",
      "type": "event"
    },
    {
      "anonymous": false,
      "inputs": [
        {
          "indexed": true,
          "internalType": "address",
          "name": "previousOwner",
          "type": "address"
        },
        {
          "indexed": true,
          "internalType": "address",
          "name": "newOwner",
          "type": "address"
        }
      ],
      "name": "OwnershipTransferred",
      "type": "event"
    },
    {
      "anonymous": false,
      "inputs": [
        {
          "indexed": false,
          "internalType": "address",
          "name": "account",
          "type": "address"
        }
      ],
      "name": "Paused",
      "type": "event"
    },
    {
      "anonymous": false,
      "inputs": [
        {
          "indexed": true,
          "internalType": "address",
          "name": "from",
          "type": "address"
        },
        {
          "indexed": false,
          "internalType": "uint256",
          "name": "collateralAmount",
          "type": "uint256"
        },
        {
          "indexed": false,
          "internalType": "uint256",
          "name": "stablecoinAmount",
          "type": "uint256"
        }
      ],
      "name": "Redeem",
      "type": "event"
    },
    {
      "anonymous": false,
      "inputs": [
        {
          "indexed": true,
          "internalType": "address",
          "name": "from",
          "type": "address"
        },
        {
          "indexed": true,
          "internalType": "address",
          "name": "to",
          "type": "address"
        },
        {
          "indexed": false,
          "internalType": "uint256",
          "name": "value",
          "type": "uint256"
        }
      ],
      "name": "Transfer",
      "type": "event"
    },
    {
      "anonymous": false,
      "inputs": [
        {
          "indexed": false,
          "internalType": "address",
          "name": "account",
          "type": "address"
        }
      ],
      "name": "Unpaused",
      "type": "event"
    },
    {
      "inputs": [],
      "name": "COLLATERAL_RATIO_PRECISION",
      "outputs": [
        {
          "internalType": "uint256",
          "name": "",
          "type": "uint256"
        }
      ],
      "stateMutability": "view",
      "type": "function",
      "constant": true
    },
    {
      "inputs": [
        {
          "internalType": "address",
          "name": "owner",
          "type": "address"
        },
        {
          "internalType": "address",
          "name": "spender",
          "type": "address"
        }
      ],
      "name": "allowance",
      "outputs": [
        {
          "internalType": "uint256",
          "name": "",
          "type": "uint256"
        }
      ],
      "stateMutability": "view",
      "type": "function",
      "constant": true
    },
    {
      "inputs": [
        {
          "internalType": "address",
          "name": "spender",
          "type": "address"
        },
        {
          "internalType": "uint256",
          "name": "amount",
          "type": "uint256"
        }
      ],
      "name": "approve",
      "outputs": [
        {
          "internalType": "bool",
          "name": "",
          "type": "bool"
        }
      ],
      "stateMutability": "nonpayable",
      "type": "function"
    },
    {
      "inputs": [
        {
          "internalType": "address",
          "name": "account",
          "type": "address"
        }
      ],
      "name": "balanceOf",
      "outputs": [
        {
          "internalType": "uint256",
          "name": "",
          "type": "uint256"
        }
      ],
      "stateMutability": "view",
      "type": "function",
      "constant": true
    },
    {
      "inputs": [],
      "name": "collateralRatio",
      "outputs": [
        {
          "internalType": "uint256",
          "name": "",
          "type": "uint256"
        }
      ],
      "stateMutability": "view",
      "type": "function",
      "constant": true
    },
    {
      "inputs": [],
      "name": "collateralToken",
      "outputs": [
        {
          "internalType": "contract IERC20",
          "name": "",
          "type": "address"
        }
      ],
      "stateMutability": "view",
      "type": "function",
      "constant": true
    },
    {
      "inputs": [],
      "name": "decimals",
      "outputs": [
        {
          "internalType": "uint8",
          "name": "",
          "type": "uint8"
        }
      ],
      "stateMutability": "view",
      "type": "function",
      "constant": true
    },
    {
      "inputs": [
        {
          "internalType": "address",
          "name": "spender",
          "type": "address"
        },
        {
          "internalType": "uint256",
          "name": "subtractedValue",
          "type": "uint256"
        }
      ],
      "name": "decreaseAllowance",
      "outputs": [
        {
          "internalType": "bool",
          "name": "",
          "type": "bool"
        }
      ],
      "stateMutability": "nonpayable",
      "type": "function"
    },
    {
      "inputs": [
        {
          "internalType": "address",
          "name": "spender",
          "type": "address"
        },
        {
          "internalType": "uint256",
          "name": "addedValue",
          "type": "uint256"
        }
      ],
      "name": "increaseAllowance",
      "outputs": [
        {
          "internalType": "bool",
          "name": "",
          "type": "bool"
        }
      ],
      "stateMutability": "nonpayable",
      "type": "function"
    },
    {
      "inputs": [],
      "name": "name",
      "outputs": [
        {
          "internalType": "string",
          "name": "",
          "type": "string"
        }
      ],
      "stateMutability": "view",
      "type": "function",
      "constant": true
    },
    {
      "inputs": [],
      "name": "owner",
      "outputs": [
        {
          "internalType": "address",
          "name": "",
          "type": "address"
        }
      ],
      "stateMutability": "view",
      "type": "function",
      "constant": true
    },
    {
      "inputs": [],
      "name": "paused",
      "outputs": [
        {
          "internalType": "bool",
          "name": "",
          "type": "bool"
        }
      ],
      "stateMutability": "view",
      "type": "function",
      "constant": true
    },
    {
      "inputs": [],
      "name": "renounceOwnership",
      "outputs": [],
      "stateMutability": "nonpayable",
      "type": "function"
    },
    {
      "inputs": [],
      "name": "symbol",
      "outputs": [
        {
          "internalType": "string",
          "name": "",
          "type": "string"
        }
      ],
      "stateMutability": "view",
      "type": "function",
      "constant": true
    },
    {
      "inputs": [],
      "name": "totalSupply",
      "outputs": [
        {
          "internalType": "uint256",
          "name": "",
          "type": "uint256"
        }
      ],
      "stateMutability": "view",
      "type": "function",
      "constant": true
    },
    {
      "inputs": [
        {
          "internalType": "address",
          "name": "to",
          "type": "address"
        },
        {
          "internalType": "uint256",
          "name": "amount",
          "type": "uint256"
        }
      ],
      "name": "transfer",
      "outputs": [
        {
          "internalType": "bool",
          "name": "",
          "type": "bool"
        }
      ],
      "stateMutability": "nonpayable",
      "type": "function"
    },
    {
      "inputs": [
        {
          "internalType": "address",
          "name": "from",
          "type": "address"
        },
        {
          "internalType": "address",
          "name": "to",
          "type": "address"
        },
        {
          "internalType": "uint256",
          "name": "amount",
          "type": "uint256"
        }
      ],
      "name": "transferFrom",
      "outputs": [
        {
          "internalType": "bool",
          "name": "",
          "type": "bool"
        }
      ],
      "stateMutability": "nonpayable",
      "type": "function"
    },
    {
      "inputs": [
        {
          "internalType": "address",
          "name": "newOwner",
          "type": "address"
        }
      ],
      "name": "transferOwnership",
      "outputs": [],
      "stateMutability": "nonpayable",
      "type": "function"
    },
    {
      "inputs": [
        {
          "internalType": "uint256",
          "name": "_collateralRatio",
          "type": "uint256"
        }
      ],
      "name": "setCollateralRatio",
      "outputs": [],
      "stateMutability": "nonpayable",
      "type": "function"
    },
    {
      "inputs": [
        {
          "internalType": "uint256",
          "name": "collateralAmount",
          "type": "uint256"
        }
      ],
      "name": "mint",
      "outputs": [],
      "stateMutability": "nonpayable",
      "type": "function"
    },
    {
      "inputs": [
        {
          "internalType": "uint256",
          "name": "collateralAmount",
          "type": "uint256"
        },
        {
          "internalType": "address",
          "name": "user",
          "type": "address"
        }
      ],
      "name": "mintForDeposit",
      "outputs": [],
      "stateMutability": "nonpayable",
      "type": "function"
    },
    {
      "inputs": [
        {
          "internalType": "uint256",
          "name": "stablecoinAmount",
          "type": "uint256"
        }
      ],
      "name": "redeem",
      "outputs": [],
      "stateMutability": "nonpayable",
      "type": "function"
    },
    {
      "inputs": [
        {
          "internalType": "uint256",
          "name": "collateralAmount",
          "type": "uint256"
        }
      ],
      "name": "calculateStablecoinAmount",
      "outputs": [
        {
          "internalType": "uint256",
          "name": "",
          "type": "uint256"
        }
      ],
      "stateMutability": "view",
      "type": "function",
      "constant": true
    },
    {
      "inputs": [
        {
          "internalType": "uint256",
          "name": "stablecoinAmount",
          "type": "uint256"
        }
      ],
      "name": "calculateCollateralAmount",
      "outputs": [
        {
          "internalType": "uint256",
          "name": "",
          "type": "uint256"
        }
      ],
      "stateMutability": "view",
      "type": "function",
      "constant": true
    },
    {
      "inputs": [],
      "name": "pause",
      "outputs": [],
      "stateMutability": "nonpayable",
      "type": "function"
    },
    {
      "inputs": [],
      "name": "unpause",
      "outputs": [],
      "stateMutability": "nonpayable",
      "type": "function"
    }
  ],
  "bytecode": "0x60806040523480156200001157600080fd5b5060405162002d6538038062002d658339818101604052810190620000379190620002db565b6040518060400160405280600f81526020017f4574626320537461626c65636f696e00000000000000000000000000000000008152506040518060400160405280600481526020017f45544243000000000000000000000000000000000000000000000000000000008152508160039081620000b4919062000592565b508060049081620000c6919062000592565b5050506000600560006101000a81548160ff02191690831515021790555062000104620000f86200015460201b60201c565b6200015c60201b60201c565b81600660006101000a81548173ffffffffffffffffffffffffffffffffffffffff021916908373ffffffffffffffffffffffffffffffffffffffff16021790555080600781905550505062000679565b600033905090565b6000600560019054906101000a900473ffffffffffffffffffffffffffffffffffffffff16905081600560016101000a81548173ffffffffffffffffffffffffffffffffffffffff021916908373ffffffffffffffffffffffffffffffffffffffff1602179055508173ffffffffffffffffffffffffffffffffffffffff168173ffffffffffffffffffffffffffffffffffffffff167f8be0079c531659141344cd1fd0a4f28419497f9722a3daafe3b4186f6b6457e060405160405180910390a35050565b600080fd5b600073ffffffffffffffffffffffffffffffffffffffff82169050919050565b6000620002548262000227565b9050919050565b6000620002688262000247565b9050919050565b6200027a816200025b565b81146200028657600080fd5b50565b6000815190506200029a816200026f565b92915050565b6000819050919050565b620002b581620002a0565b8114620002c157600080fd5b50565b600081519050620002d581620002aa565b92915050565b60008060408385031215620002f557620002f462000222565b5b6000620003058582860162000289565b92505060206200031885828601620002c4565b9150509250929050565b600081519050919050565b7f4e487b7100000000000000000000000000000000000000000000000000000000600052604160045260246000fd5b7f4e487b7100000000000000000000000000000000000000000000000000000000600052602260045260246000fd5b60006002820490506001821680620003a457607f821691505b602082108103620003ba57620003b96200035c565b5b50919050565b60008190508160005260206000209050919050565b60006020601f8301049050919050565b600082821b905092915050565b600060088302620004247fffffffffffffffffffffffffffffffffffffffffffffffffffffffffffffffff82620003e5565b620004308683620003e5565b95508019841693508086168417925050509392505050565b6000819050919050565b6000620004736200046d6200046784620002a0565b62000448565b620002a0565b9050919050565b6000819050919050565b6200048f8362000452565b620004a76200049e826200047a565b848454620003f2565b825550505050565b600090565b620004be620004af565b620004cb81848462000484565b505050565b5b81811015620004f357620004e7600082620004b4565b600181019050620004d1565b5050565b601f82111562000542576200050c81620003c0565b6200051784620003d5565b8101602085101562000527578190505b6200053f6200053685620003d5565b830182620004d0565b50505b505050565b600082821c905092915050565b6000620005676000198460080262000547565b1980831691505092915050565b600062000582838362000554565b9150826002028217905092915050565b6200059d8262000322565b67ffffffffffffffff811115620005b957620005b86200032d565b5b620005c582546200038b565b620005d2828285620004f7565b600060209050601f8311600181146200060a5760008415620005f5578287015190505b62000601858262000574565b86555062000671565b601f1984166200061a86620003c0565b60005b8281101562000644578489015182556001820191506020850194506020810190506200061d565b8683101562000664578489015162000660601f89168262000554565b8355505b6001600288020188555050505b505050505050565b6126dc80620006896000396000f3fe608060405234801561001057600080fd5b506004361061018e5760003560e01c80638da5cb5b116100de578063b2016bd411610097578063db006a7511610071578063db006a7514610463578063dd62ed3e1461047f578063f2fde38b146104af578063f7be3819146104cb5761018e565b8063b2016bd414610409578063b4eae1cb14610427578063d07ac67e146104455761018e565b80638da5cb5b1461032157806395d89b411461033f57806396155dd01461035d578063a0712d681461038d578063a457c2d7146103a9578063a9059cbb146103d95761018e565b80633f4ba83a1161014b5780636060663e116101255780636060663e146102c157806370a08231146102dd578063715018a61461030d5780638456cb59146103175761018e565b80633f4ba83a1461027d5780635c975abb146102875780635d4917e7146102a55761018e565b806306fdde0314610193578063095ea7b3146101b157806318160ddd146101e157806323b872dd146101ff578063313ce5671461022f578063395093511461024d575b600080fd5b61019b6104fb565b6040516101a891906118e6565b60405180910390f35b6101cb60048036038101906101c691906119a1565b61058d565b6040516101d891906119fc565b60405180910390f35b6101e96105b0565b6040516101f69190611a26565b60405180910390f35b61021960048036038101906102149190611a41565b6105ba565b60405161022691906119fc565b60405180910390f35b6102376105e9565b6040516102449190611ab0565b60405180910390f35b610267600480360381019061026291906119a1565b6105f2565b60405161027491906119fc565b60405180910390f35b610285610629565b005b61028f61063b565b60405161029c91906119fc565b60405180910390f35b6102bf60048036038101906102ba9190611acb565b610652565b005b6102db60048036038101906102d69190611b0b565b6107ac565b005b6102f760048036038101906102f29190611b38565b6107be565b6040516103049190611a26565b60405180910390f35b610315610806565b005b61031f61081a565b005b61032961082c565b6040516103369190611b74565b60405180910390f35b610347610856565b60405161035491906118e6565b60405180910390f35b61037760048036038101906103729190611b0b565b6108e8565b6040516103849190611a26565b60405180910390f35b6103a760048036038101906103a29190611b0b565b61090d565b005b6103c360048036038101906103be91906119a1565b610a66565b6040516103d091906119fc565b60405180910390f35b6103f360048036038101906103ee91906119a1565b610add565b60405161040091906119fc565b60405180910390f35b610411610b00565b60405161041e9190611bee565b60405180910390f35b61042f610b26565b60405161043c9190611a26565b60405180910390f35b61044d610b2c565b60405161045a9190611a26565b60405180910390f35b61047d60048036038101906104789190611b0b565b610b33565b005b61049960048036038101906104949190611c09565b610c8a565b6040516104a69190611a26565b60405180910390f35b6104c960048036038101906104c49190611b38565b610d11565b005b6104e560048036038101906104e09190611b0b565b610d94565b6040516104f29190611a26565b60405180910390f35b60606003805461050a90611c78565b80601f016020809104026020016040519081016040528092919081815260200182805461053690611c78565b80156105835780601f1061055857610100808354040283529160200191610583565b820191906000526020600020905b81548152906001019060200180831161056657829003601f168201915b5050505050905090565b600080610598610db9565b90506105a5818585610dc1565b600191505092915050565b6000600254905090565b6000806105c5610db9565b90506105d2858285610f8a565b6105dd858585611016565b60019150509392505050565b60006012905090565b6000806105fd610db9565b905061061e81858561060f8589610c8a565b6106199190611cd8565b610dc1565b600191505092915050565b61063161128c565b61063961130a565b565b6000600560009054906101000a900460ff16905090565b61065a61136d565b6000821161069d576040517f08c379a000000000000000000000000000000000000000000000000000000000815260040161069490611d58565b60405180910390fd5b60006106a8836108e8565b9050600660009054906101000a900473ffffffffffffffffffffffffffffffffffffffff1673ffffffffffffffffffffffffffffffffffffffff166323b872dd3330866040518463ffffffff1660e01b815260040161070993929190611d78565b6020604051808303816000875af1158015610728573d6000803e3d6000fd5b505050506040513d601f19601f8201168201806040525081019061074c9190611ddb565b5061075782826113b7565b8173ffffffffffffffffffffffffffffffffffffffff167f4c209b5fc8ad50758f13e2e1088ba56a560dff690a1c6fef26394f4c03821c4f848360405161079f929190611e08565b60405180910390a2505050565b6107b461128c565b8060078190555050565b60008060008373ffffffffffffffffffffffffffffffffffffffff1673ffffffffffffffffffffffffffffffffffffffff168152602001908152602001600020549050919050565b61080e61128c565b610818600061150d565b565b61082261128c565b61082a6115d3565b565b6000600560019054906101000a900473ffffffffffffffffffffffffffffffffffffffff16905090565b60606004805461086590611c78565b80601f016020809104026020016040519081016040528092919081815260200182805461089190611c78565b80156108de5780601f106108b3576101008083540402835291602001916108de565b820191906000526020600020905b8154815290600101906020018083116108c157829003601f168201915b5050505050905090565b6000620f4240600754836108fc9190611e31565b6109069190611ea2565b9050919050565b61091561136d565b60008111610958576040517f08c379a000000000000000000000000000000000000000000000000000000000815260040161094f90611d58565b60405180910390fd5b6000610963826108e8565b9050600660009054906101000a900473ffffffffffffffffffffffffffffffffffffffff1673ffffffffffffffffffffffffffffffffffffffff166323b872dd3330856040518463ffffffff1660e01b81526004016109c493929190611d78565b6020604051808303816000875af11580156109e3573d6000803e3d6000fd5b505050506040513d601f19601f82011682018060405250810190610a079190611ddb565b50610a1233826113b7565b3373ffffffffffffffffffffffffffffffffffffffff167f4c209b5fc8ad50758f13e2e1088ba56a560dff690a1c6fef26394f4c03821c4f8383604051610a5a929190611e08565b60405180910390a25050565b600080610a71610db9565b90506000610a7f8286610c8a565b905083811015610ac4576040517f08c379a0000000000000000000000000000000000000000000000000000000008152600401610abb90611f45565b60405180910390fd5b610ad18286868403610dc1565b60019250505092915050565b600080610ae8610db9565b9050610af5818585611016565b600191505092915050565b600660009054906101000a900473ffffffffffffffffffffffffffffffffffffffff1681565b60075481565b620f424081565b610b3b61136d565b60008111610b7e576040517f08c379a0000000000000000000000000000000000000000000000000000000008152600401610b7590611fb1565b60405180910390fd5b6000610b8982610d94565b9050610b953383611636565b600660009054906101000a900473ffffffffffffffffffffffffffffffffffffffff1673ffffffffffffffffffffffffffffffffffffffff1663a9059cbb33836040518363ffffffff1660e01b8152600401610bf2929190611fd1565b6020604051808303816000875af1158015610c11573d6000803e3d6000fd5b505050506040513d601f19601f82011682018060405250810190610c359190611ddb565b503373ffffffffffffffffffffffffffffffffffffffff167fe5b754fb1abb7f01b499791d0b820ae3b6af3424ac1c59768edb53f4ec31a9298284604051610c7e929190611e08565b60405180910390a25050565b6000600160008473ffffffffffffffffffffffffffffffffffffffff1673ffffffffffffffffffffffffffffffffffffffff16815260200190815260200160002060008373ffffffffffffffffffffffffffffffffffffffff1673ffffffffffffffffffffffffffffffffffffffff16815260200190815260200160002054905092915050565b610d1961128c565b600073ffffffffffffffffffffffffffffffffffffffff168173ffffffffffffffffffffffffffffffffffffffff1603610d88576040517f08c379a0000000000000000000000000000000000000000000000000000000008152600401610d7f9061206c565b60405180910390fd5b610d918161150d565b50565b6000600754620f424083610da89190611e31565b610db29190611ea2565b9050919050565b600033905090565b600073ffffffffffffffffffffffffffffffffffffffff168373ffffffffffffffffffffffffffffffffffffffff1603610e30576040517f08c379a0000000000000000000000000000000000000000000000000000000008152600401610e27906120fe565b60405180910390fd5b600073ffffffffffffffffffffffffffffffffffffffff168273ffffffffffffffffffffffffffffffffffffffff1603610e9f576040517f08c379a0000000000000000000000000000000000000000000000000000000008152600401610e9690612190565b60405180910390fd5b80600160008573ffffffffffffffffffffffffffffffffffffffff1673ffffffffffffffffffffffffffffffffffffffff16815260200190815260200160002060008473ffffffffffffffffffffffffffffffffffffffff1673ffffffffffffffffffffffffffffffffffffffff168152602001908152602001600020819055508173ffffffffffffffffffffffffffffffffffffffff168373ffffffffffffffffffffffffffffffffffffffff167f8c5be1e5ebec7d5bd14f71427d1e84f3dd0314c0f7b2291e5b200ac8c7c3b92583604051610f7d9190611a26565b60405180910390a3505050565b6000610f968484610c8a565b90507fffffffffffffffffffffffffffffffffffffffffffffffffffffffffffffffff81146110105781811015611002576040517f08c379a0000000000000000000000000000000000000000000000000000000008152600401610ff9906121fc565b60405180910390fd5b61100f8484848403610dc1565b5b50505050565b600073ffffffffffffffffffffffffffffffffffffffff168373ffffffffffffffffffffffffffffffffffffffff1603611085576040517f08c379a000000000000000000000000000000000000000000000000000000000815260040161107c9061228e565b60405180910390fd5b600073ffffffffffffffffffffffffffffffffffffffff168273ffffffffffffffffffffffffffffffffffffffff16036110f4576040517f08c379a00000000000000000000000000000000000000000000000000000000081526004016110eb90612320565b60405180910390fd5b6110ff838383611803565b60008060008573ffffffffffffffffffffffffffffffffffffffff1673ffffffffffffffffffffffffffffffffffffffff16815260200190815260200160002054905081811015611185576040517f08c379a000000000000000000000000000000000000000000000000000000000815260040161117c906123b2565b60405180910390fd5b8181036000808673ffffffffffffffffffffffffffffffffffffffff1673ffffffffffffffffffffffffffffffffffffffff16815260200190815260200160002081905550816000808573ffffffffffffffffffffffffffffffffffffffff1673ffffffffffffffffffffffffffffffffffffffff168152602001908152602001600020600082825401925050819055508273ffffffffffffffffffffffffffffffffffffffff168473ffffffffffffffffffffffffffffffffffffffff167fddf252ad1be2c89b69c2b068fc378daa952ba7f163c4a11628f55a4df523b3ef846040516112739190611a26565b60405180910390a3611286848484611808565b50505050565b611294610db9565b73ffffffffffffffffffffffffffffffffffffffff166112b261082c565b73ffffffffffffffffffffffffffffffffffffffff1614611308576040517f08c379a00000000000000000000000000000000000000000000000000000000081526004016112ff9061241e565b60405180910390fd5b565b61131261180d565b6000600560006101000a81548160ff0219169083151502179055507f5db9ee0a495bf2e6ff9c91a7834c1ba4fdd244a5e8aa4e537bd38aeae4b073aa611356610db9565b6040516113639190611b74565b60405180910390a1565b61137561063b565b156113b5576040517f08c379a00000000000000000000000000000000000000000000000000000000081526004016113ac9061248a565b60405180910390fd5b565b600073ffffffffffffffffffffffffffffffffffffffff168273ffffffffffffffffffffffffffffffffffffffff1603611426576040517f08c379a000000000000000000000000000000000000000000000000000000000815260040161141d906124f6565b60405180910390fd5b61143260008383611803565b80600260008282546114449190611cd8565b92505081905550806000808473ffffffffffffffffffffffffffffffffffffffff1673ffffffffffffffffffffffffffffffffffffffff168152602001908152602001600020600082825401925050819055508173ffffffffffffffffffffffffffffffffffffffff16600073ffffffffffffffffffffffffffffffffffffffff167fddf252ad1be2c89b69c2b068fc378daa952ba7f163c4a11628f55a4df523b3ef836040516114f59190611a26565b60405180910390a361150960008383611808565b5050565b6000600560019054906101000a900473ffffffffffffffffffffffffffffffffffffffff16905081600560016101000a81548173ffffffffffffffffffffffffffffffffffffffff021916908373ffffffffffffffffffffffffffffffffffffffff1602179055508173ffffffffffffffffffffffffffffffffffffffff168173ffffffffffffffffffffffffffffffffffffffff167f8be0079c531659141344cd1fd0a4f28419497f9722a3daafe3b4186f6b6457e060405160405180910390a35050565b6115db61136d565b6001600560006101000a81548160ff0219169083151502179055507f62e78cea01bee320cd4e420270b5ea74000d11b0c9f74754ebdbfc544b05a25861161f610db9565b60405161162c9190611b74565b60405180910390a1565b600073ffffffffffffffffffffffffffffffffffffffff168273ffffffffffffffffffffffffffffffffffffffff16036116a5576040517f08c379a000000000000000000000000000000000000000000000000000000000815260040161169c90612588565b60405180910390fd5b6116b182600083611803565b60008060008473ffffffffffffffffffffffffffffffffffffffff1673ffffffffffffffffffffffffffffffffffffffff16815260200190815260200160002054905081811015611737576040517f08c379a000000000000000000000000000000000000000000000000000000000815260040161172e9061261a565b60405180910390fd5b8181036000808573ffffffffffffffffffffffffffffffffffffffff1673ffffffffffffffffffffffffffffffffffffffff1681526020019081526020016000208190555081600260008282540392505081905550600073ffffffffffffffffffffffffffffffffffffffff168373ffffffffffffffffffffffffffffffffffffffff167fddf252ad1be2c89b69c2b068fc378daa952ba7f163c4a11628f55a4df523b3ef846040516117ea9190611a26565b60405180910390a36117fe83600084611808565b505050565b505050565b505050565b61181561063b565b611854576040517f08c379a000000000000000000000000000000000000000000000000000000000815260040161184b90612686565b60405180910390fd5b565b600081519050919050565b600082825260208201905092915050565b60005b83811015611890578082015181840152602081019050611875565b60008484015250505050565b6000601f19601f8301169050919050565b60006118b882611856565b6118c28185611861565b93506118d2818560208601611872565b6118db8161189c565b840191505092915050565b6000602082019050818103600083015261190081846118ad565b905092915050565b600080fd5b600073ffffffffffffffffffffffffffffffffffffffff82169050919050565b60006119388261190d565b9050919050565b6119488161192d565b811461195357600080fd5b50565b6000813590506119658161193f565b92915050565b6000819050919050565b61197e8161196b565b811461198957600080fd5b50565b60008135905061199b81611975565b92915050565b600080604083850312156119b8576119b7611908565b5b60006119c685828601611956565b92505060206119d78582860161198c565b9150509250929050565b60008115159050919050565b6119f6816119e1565b82525050565b6000602082019050611a1160008301846119ed565b92915050565b611a208161196b565b82525050565b6000602082019050611a3b6000830184611a17565b92915050565b600080600060608486031215611a5a57611a59611908565b5b6000611a6886828701611956565b9350506020611a7986828701611956565b9250506040611a8a8682870161198c565b9150509250925092565b600060ff82169050919050565b611aaa81611a94565b82525050565b6000602082019050611ac56000830184611aa1565b92915050565b60008060408385031215611ae257611ae1611908565b5b6000611af08582860161198c565b9250506020611b0185828601611956565b9150509250929050565b600060208284031215611b2157611b20611908565b5b6000611b2f8482850161198c565b91505092915050565b600060208284031215611b4e57611b4d611908565b5b6000611b5c84828501611956565b91505092915050565b611b6e8161192d565b82525050565b6000602082019050611b896000830184611b65565b92915050565b6000819050919050565b6000611bb4611baf611baa8461190d565b611b8f565b61190d565b9050919050565b6000611bc682611b99565b9050919050565b6000611bd882611bbb565b9050919050565b611be881611bcd565b82525050565b6000602082019050611c036000830184611bdf565b92915050565b60008060408385031215611c2057611c1f611908565b5b6000611c2e85828601611956565b9250506020611c3f85828601611956565b9150509250929050565b7f4e487b7100000000000000000000000000000000000000000000000000000000600052602260045260246000fd5b60006002820490506001821680611c9057607f821691505b602082108103611ca357611ca2611c49565b5b50919050565b7f4e487b7100000000000000000000000000000000000000000000000000000000600052601160045260246000fd5b6000611ce38261196b565b9150611cee8361196b565b9250828201905080821115611d0657611d05611ca9565b5b92915050565b7f496e76616c696420636f6c6c61746572616c20616d6f756e7400000000000000600082015250565b6000611d42601983611861565b9150611d4d82611d0c565b602082019050919050565b60006020820190508181036000830152611d7181611d35565b9050919050565b6000606082019050611d8d6000830186611b65565b611d9a6020830185611b65565b611da76040830184611a17565b949350505050565b611db8816119e1565b8114611dc357600080fd5b50565b600081519050611dd581611daf565b92915050565b600060208284031215611df157611df0611908565b5b6000611dff84828501611dc6565b91505092915050565b6000604082019050611e1d6000830185611a17565b611e2a6020830184611a17565b9392505050565b6000611e3c8261196b565b9150611e478361196b565b9250828202611e558161196b565b91508282048414831517611e6c57611e6b611ca9565b5b5092915050565b7f4e487b7100000000000000000000000000000000000000000000000000000000600052601260045260246000fd5b6000611ead8261196b565b9150611eb88361196b565b925082611ec857611ec7611e73565b5b828204905092915050565b7f45524332303a2064656372656173656420616c6c6f77616e63652062656c6f7760008201527f207a65726f000000000000000000000000000000000000000000000000000000602082015250565b6000611f2f602583611861565b9150611f3a82611ed3565b604082019050919050565b60006020820190508181036000830152611f5e81611f22565b9050919050565b7f496e76616c696420737461626c65636f696e20616d6f756e7400000000000000600082015250565b6000611f9b601983611861565b9150611fa682611f65565b602082019050919050565b60006020820190508181036000830152611fca81611f8e565b9050919050565b6000604082019050611fe66000830185611b65565b611ff36020830184611a17565b9392505050565b7f4f776e61626c653a206e6577206f776e657220697320746865207a65726f206160008201527f6464726573730000000000000000000000000000000000000000000000000000602082015250565b6000612056602683611861565b915061206182611ffa565b604082019050919050565b6000602082019050818103600083015261208581612049565b9050919050565b7f45524332303a20617070726f76652066726f6d20746865207a65726f2061646460008201527f7265737300000000000000000000000000000000000000000000000000000000602082015250565b60006120e8602483611861565b91506120f38261208c565b604082019050919050565b60006020820190508181036000830152612117816120db565b9050919050565b7f45524332303a20617070726f766520746f20746865207a65726f20616464726560008201527f7373000000000000000000000000000000000000000000000000000000000000602082015250565b600061217a602283611861565b91506121858261211e565b604082019050919050565b600060208201905081810360008301526121a98161216d565b9050919050565b7f45524332303a20696e73756666696369656e7420616c6c6f77616e6365000000600082015250565b60006121e6601d83611861565b91506121f1826121b0565b602082019050919050565b60006020820190508181036000830152612215816121d9565b9050919050565b7f45524332303a207472616e736665722066726f6d20746865207a65726f20616460008201527f6472657373000000000000000000000000000000000000000000000000000000602082015250565b6000612278602583611861565b91506122838261221c565b604082019050919050565b600060208201905081810360008301526122a78161226b565b9050919050565b7f45524332303a207472616e7366657220746f20746865207a65726f206164647260008201527f6573730000000000000000000000000000000000000000000000000000000000602082015250565b600061230a602383611861565b9150612315826122ae565b604082019050919050565b60006020820190508181036000830152612339816122fd565b9050919050565b7f45524332303a207472616e7366657220616d6f756e742065786365656473206260008201527f616c616e63650000000000000000000000000000000000000000000000000000602082015250565b600061239c602683611861565b91506123a782612340565b604082019050919050565b600060208201905081810360008301526123cb8161238f565b9050919050565b7f4f776e61626c653a2063616c6c6572206973206e6f7420746865206f776e6572600082015250565b6000612408602083611861565b9150612413826123d2565b602082019050919050565b60006020820190508181036000830152612437816123fb565b9050919050565b7f5061757361626c653a2070617573656400000000000000000000000000000000600082015250565b6000612474601083611861565b915061247f8261243e565b602082019050919050565b600060208201905081810360008301526124a381612467565b9050919050565b7f45524332303a206d696e7420746f20746865207a65726f206164647265737300600082015250565b60006124e0601f83611861565b91506124eb826124aa565b602082019050919050565b6000602082019050818103600083015261250f816124d3565b9050919050565b7f45524332303a206275726e2066726f6d20746865207a65726f2061646472657360008201527f7300000000000000000000000000000000000000000000000000000000000000602082015250565b6000612572602183611861565b915061257d82612516565b604082019050919050565b600060208201905081810360008301526125a181612565565b9050919050565b7f45524332303a206275726e20616d6f756e7420657863656564732062616c616e60008201527f6365000000000000000000000000000000000000000000000000000000000000602082015250565b6000612604602283611861565b915061260f826125a8565b604082019050919050565b60006020820190508181036000830152612633816125f7565b9050919050565b7f5061757361626c653a206e6f7420706175736564000000000000000000000000600082015250565b6000612670601483611861565b915061267b8261263a565b602082019050919050565b6000602082019050818103600083015261269f81612663565b905091905056fea2646970667358221220f6bac396412ea9aeddefa3b8b7f91d8b55434c6eb2d351bf76c7120a505a17b164736f6c63430008130033",
  "immutableReferences": {},
  "source": "// SPDX-License-Identifier: MIT\npragma solidity ^0.8.0;\n\nimport \"@openzeppelin/contracts/token/ERC20/IERC20.sol\";\nimport \"@openzeppelin/contracts/token/ERC20/ERC20.sol\";\nimport \"@openzeppelin/contracts/security/Pausable.sol\";\nimport \"@openzeppelin/contracts/access/Ownable.sol\";\n\ncontract Etbc is ERC20, Pausable, Ownable {\n    IERC20 public collateralToken;\n    uint256 public collateralRatio;\n    uint256 public constant COLLATERAL_RATIO_PRECISION = 1e6;\n\n    event Mint(\n        address indexed to,\n        uint256 collateralAmount,\n        uint256 stablecoinAmount\n    );\n    event Redeem(\n        address indexed from,\n        uint256 collateralAmount,\n        uint256 stablecoinAmount\n    );\n\n    constructor(IERC20 _collateralToken, uint256 _collateralRatio)\n        ERC20(\"Etbc Stablecoin\", \"ETBC\")\n    {\n        collateralToken = _collateralToken;\n        collateralRatio = _collateralRatio;\n    }\n\n    function setCollateralRatio(uint256 _collateralRatio) external onlyOwner {\n        collateralRatio = _collateralRatio;\n    }\n\n    function mint(uint256 collateralAmount) external whenNotPaused {\n        require(collateralAmount > 0, \"Invalid collateral amount\");\n\n        uint256 stablecoinAmount = calculateStablecoinAmount(collateralAmount);\n\n        collateralToken.transferFrom(\n            msg.sender,\n            address(this),\n            collateralAmount\n        );\n        _mint(msg.sender, stablecoinAmount);\n\n        emit Mint(msg.sender, collateralAmount, stablecoinAmount);\n    }\n\n    function mintForDeposit(uint256 collateralAmount, address user)\n        external\n        whenNotPaused\n    {\n        require(collateralAmount > 0, \"Invalid collateral amount\");\n\n        uint256 stablecoinAmount = calculateStablecoinAmount(collateralAmount);\n\n        collateralToken.transferFrom(\n            msg.sender,\n            address(this),\n            collateralAmount\n        );\n        _mint(user, stablecoinAmount);\n\n        emit Mint(user, collateralAmount, stablecoinAmount);\n    }\n\n    function redeem(uint256 stablecoinAmount) external whenNotPaused {\n        require(stablecoinAmount > 0, \"Invalid stablecoin amount\");\n\n        uint256 collateralAmount = calculateCollateralAmount(stablecoinAmount);\n\n        _burn(msg.sender, stablecoinAmount);\n        collateralToken.transfer(msg.sender, collateralAmount);\n\n        emit Redeem(msg.sender, collateralAmount, stablecoinAmount);\n    }\n\n    function calculateStablecoinAmount(uint256 collateralAmount)\n        public\n        view\n        returns (uint256)\n    {\n        return\n            (collateralAmount * collateralRatio) / COLLATERAL_RATIO_PRECISION;\n    }\n\n    function calculateCollateralAmount(uint256 stablecoinAmount)\n        public\n        view\n        returns (uint256)\n    {\n        return\n            (stablecoinAmount * COLLATERAL_RATIO_PRECISION) / collateralRatio;\n    }\n\n    function pause() external onlyOwner {\n        _pause();\n    }\n\n    function unpause() external onlyOwner {\n        _unpause();\n    }\n}\n",
  "sourcePath": "/home/user43/Desktop/work/future/Ano-Blocks-SmartContracts/contracts/Etbc.sol",
  "compiler": {
    "name": "solc",
    "version": "0.8.19+commit.7dd6d404.Emscripten.clang"
  },
  "schemaVersion": "3.4.13",
  "updatedAt": "2023-05-26T17:50:44.782Z",
  "networkType": "ethereum",
  "devdoc": {
    "events": {
      "Approval(address,address,uint256)": {
        "details": "Emitted when the allowance of a `spender` for an `owner` is set by a call to {approve}. `value` is the new allowance."
      },
      "Paused(address)": {
        "details": "Emitted when the pause is triggered by `account`."
      },
      "Transfer(address,address,uint256)": {
        "details": "Emitted when `value` tokens are moved from one account (`from`) to another (`to`). Note that `value` may be zero."
      },
      "Unpaused(address)": {
        "details": "Emitted when the pause is lifted by `account`."
      }
    },
    "kind": "dev",
    "methods": {
      "allowance(address,address)": {
        "details": "See {IERC20-allowance}."
      },
      "approve(address,uint256)": {
        "details": "See {IERC20-approve}. NOTE: If `amount` is the maximum `uint256`, the allowance is not updated on `transferFrom`. This is semantically equivalent to an infinite approval. Requirements: - `spender` cannot be the zero address."
      },
      "balanceOf(address)": {
        "details": "See {IERC20-balanceOf}."
      },
      "decimals()": {
        "details": "Returns the number of decimals used to get its user representation. For example, if `decimals` equals `2`, a balance of `505` tokens should be displayed to a user as `5.05` (`505 / 10 ** 2`). Tokens usually opt for a value of 18, imitating the relationship between Ether and Wei. This is the value {ERC20} uses, unless this function is overridden; NOTE: This information is only used for _display_ purposes: it in no way affects any of the arithmetic of the contract, including {IERC20-balanceOf} and {IERC20-transfer}."
      },
      "decreaseAllowance(address,uint256)": {
        "details": "Atomically decreases the allowance granted to `spender` by the caller. This is an alternative to {approve} that can be used as a mitigation for problems described in {IERC20-approve}. Emits an {Approval} event indicating the updated allowance. Requirements: - `spender` cannot be the zero address. - `spender` must have allowance for the caller of at least `subtractedValue`."
      },
      "increaseAllowance(address,uint256)": {
        "details": "Atomically increases the allowance granted to `spender` by the caller. This is an alternative to {approve} that can be used as a mitigation for problems described in {IERC20-approve}. Emits an {Approval} event indicating the updated allowance. Requirements: - `spender` cannot be the zero address."
      },
      "name()": {
        "details": "Returns the name of the token."
      },
      "owner()": {
        "details": "Returns the address of the current owner."
      },
      "paused()": {
        "details": "Returns true if the contract is paused, and false otherwise."
      },
      "renounceOwnership()": {
        "details": "Leaves the contract without owner. It will not be possible to call `onlyOwner` functions anymore. Can only be called by the current owner. NOTE: Renouncing ownership will leave the contract without an owner, thereby removing any functionality that is only available to the owner."
      },
      "symbol()": {
        "details": "Returns the symbol of the token, usually a shorter version of the name."
      },
      "totalSupply()": {
        "details": "See {IERC20-totalSupply}."
      },
      "transfer(address,uint256)": {
        "details": "See {IERC20-transfer}. Requirements: - `to` cannot be the zero address. - the caller must have a balance of at least `amount`."
      },
      "transferFrom(address,address,uint256)": {
        "details": "See {IERC20-transferFrom}. Emits an {Approval} event indicating the updated allowance. This is not required by the EIP. See the note at the beginning of {ERC20}. NOTE: Does not update the allowance if the current allowance is the maximum `uint256`. Requirements: - `from` and `to` cannot be the zero address. - `from` must have a balance of at least `amount`. - the caller must have allowance for ``from``'s tokens of at least `amount`."
      },
      "transferOwnership(address)": {
        "details": "Transfers ownership of the contract to a new account (`newOwner`). Can only be called by the current owner."
      }
    },
    "version": 1
  },
  "userdoc": {
    "kind": "user",
    "methods": {},
    "version": 1
  }
}