{
  "contractName": "Etbc",
  "abi": [
    {
      "inputs": [
        {
          "internalType": "uint256",
          "name": "chainId_",
          "type": "uint256"
        }
      ],
      "stateMutability": "nonpayable",
      "type": "constructor"
    },
    {
      "anonymous": false,
      "inputs": [
        {
          "indexed": true,
          "internalType": "address",
          "name": "src",
          "type": "address"
        },
        {
          "indexed": true,
          "internalType": "address",
          "name": "guy",
          "type": "address"
        },
        {
          "indexed": false,
          "internalType": "uint256",
          "name": "wad",
          "type": "uint256"
        }
      ],
      "name": "Approval",
      "type": "event"
    },
    {
      "anonymous": false,
      "inputs": [
        {
          "indexed": true,
          "internalType": "address",
          "name": "src",
          "type": "address"
        },
        {
          "indexed": true,
          "internalType": "address",
          "name": "dst",
          "type": "address"
        },
        {
          "indexed": false,
          "internalType": "uint256",
          "name": "wad",
          "type": "uint256"
        }
      ],
      "name": "Transfer",
      "type": "event"
    },
    {
      "inputs": [],
      "name": "DOMAIN_SEPARATOR",
      "outputs": [
        {
          "internalType": "bytes32",
          "name": "",
          "type": "bytes32"
        }
      ],
      "stateMutability": "view",
      "type": "function",
      "constant": true
    },
    {
      "inputs": [],
      "name": "PERMIT_TYPEHASH",
      "outputs": [
        {
          "internalType": "bytes32",
          "name": "",
          "type": "bytes32"
        }
      ],
      "stateMutability": "view",
      "type": "function",
      "constant": true
    },
    {
      "inputs": [
        {
          "internalType": "address",
          "name": "",
          "type": "address"
        },
        {
          "internalType": "address",
          "name": "",
          "type": "address"
        }
      ],
      "name": "allowance",
      "outputs": [
        {
          "internalType": "uint256",
          "name": "",
          "type": "uint256"
        }
      ],
      "stateMutability": "view",
      "type": "function",
      "constant": true
    },
    {
      "inputs": [
        {
          "internalType": "address",
          "name": "",
          "type": "address"
        }
      ],
      "name": "balanceOf",
      "outputs": [
        {
          "internalType": "uint256",
          "name": "",
          "type": "uint256"
        }
      ],
      "stateMutability": "view",
      "type": "function",
      "constant": true
    },
    {
      "inputs": [],
      "name": "decimals",
      "outputs": [
        {
          "internalType": "uint8",
          "name": "",
          "type": "uint8"
        }
      ],
      "stateMutability": "view",
      "type": "function",
      "constant": true
    },
    {
      "inputs": [],
      "name": "name",
      "outputs": [
        {
          "internalType": "string",
          "name": "",
          "type": "string"
        }
      ],
      "stateMutability": "view",
      "type": "function",
      "constant": true
    },
    {
      "inputs": [
        {
          "internalType": "address",
          "name": "",
          "type": "address"
        }
      ],
      "name": "nonces",
      "outputs": [
        {
          "internalType": "uint256",
          "name": "",
          "type": "uint256"
        }
      ],
      "stateMutability": "view",
      "type": "function",
      "constant": true
    },
    {
      "inputs": [],
      "name": "symbol",
      "outputs": [
        {
          "internalType": "string",
          "name": "",
          "type": "string"
        }
      ],
      "stateMutability": "view",
      "type": "function",
      "constant": true
    },
    {
      "inputs": [],
      "name": "totalSupply",
      "outputs": [
        {
          "internalType": "uint256",
          "name": "",
          "type": "uint256"
        }
      ],
      "stateMutability": "view",
      "type": "function",
      "constant": true
    },
    {
      "inputs": [],
      "name": "version",
      "outputs": [
        {
          "internalType": "string",
          "name": "",
          "type": "string"
        }
      ],
      "stateMutability": "view",
      "type": "function",
      "constant": true
    },
    {
      "inputs": [
        {
          "internalType": "address",
          "name": "",
          "type": "address"
        }
      ],
      "name": "wards",
      "outputs": [
        {
          "internalType": "uint256",
          "name": "",
          "type": "uint256"
        }
      ],
      "stateMutability": "view",
      "type": "function",
      "constant": true
    },
    {
      "inputs": [
        {
          "internalType": "address",
          "name": "guy",
          "type": "address"
        }
      ],
      "name": "rely",
      "outputs": [],
      "stateMutability": "nonpayable",
      "type": "function"
    },
    {
      "inputs": [
        {
          "internalType": "address",
          "name": "guy",
          "type": "address"
        }
      ],
      "name": "deny",
      "outputs": [],
      "stateMutability": "nonpayable",
      "type": "function"
    },
    {
      "inputs": [
        {
          "internalType": "address",
          "name": "dst",
          "type": "address"
        },
        {
          "internalType": "uint256",
          "name": "wad",
          "type": "uint256"
        }
      ],
      "name": "transfer",
      "outputs": [
        {
          "internalType": "bool",
          "name": "",
          "type": "bool"
        }
      ],
      "stateMutability": "nonpayable",
      "type": "function"
    },
    {
      "inputs": [
        {
          "internalType": "address",
          "name": "src",
          "type": "address"
        },
        {
          "internalType": "address",
          "name": "dst",
          "type": "address"
        },
        {
          "internalType": "uint256",
          "name": "wad",
          "type": "uint256"
        }
      ],
      "name": "transferFrom",
      "outputs": [
        {
          "internalType": "bool",
          "name": "",
          "type": "bool"
        }
      ],
      "stateMutability": "nonpayable",
      "type": "function"
    },
    {
      "inputs": [
        {
          "internalType": "address",
          "name": "usr",
          "type": "address"
        },
        {
          "internalType": "uint256",
          "name": "wad",
          "type": "uint256"
        }
      ],
      "name": "mint",
      "outputs": [],
      "stateMutability": "nonpayable",
      "type": "function"
    },
    {
      "inputs": [
        {
          "internalType": "address",
          "name": "usr",
          "type": "address"
        },
        {
          "internalType": "uint256",
          "name": "wad",
          "type": "uint256"
        }
      ],
      "name": "burn",
      "outputs": [],
      "stateMutability": "nonpayable",
      "type": "function"
    },
    {
      "inputs": [
        {
          "internalType": "address",
          "name": "usr",
          "type": "address"
        },
        {
          "internalType": "uint256",
          "name": "wad",
          "type": "uint256"
        }
      ],
      "name": "approve",
      "outputs": [
        {
          "internalType": "bool",
          "name": "",
          "type": "bool"
        }
      ],
      "stateMutability": "nonpayable",
      "type": "function"
    },
    {
      "inputs": [
        {
          "internalType": "address",
          "name": "usr",
          "type": "address"
        },
        {
          "internalType": "uint256",
          "name": "wad",
          "type": "uint256"
        }
      ],
      "name": "push",
      "outputs": [],
      "stateMutability": "nonpayable",
      "type": "function"
    },
    {
      "inputs": [
        {
          "internalType": "address",
          "name": "usr",
          "type": "address"
        },
        {
          "internalType": "uint256",
          "name": "wad",
          "type": "uint256"
        }
      ],
      "name": "pull",
      "outputs": [],
      "stateMutability": "nonpayable",
      "type": "function"
    },
    {
      "inputs": [
        {
          "internalType": "address",
          "name": "src",
          "type": "address"
        },
        {
          "internalType": "address",
          "name": "dst",
          "type": "address"
        },
        {
          "internalType": "uint256",
          "name": "wad",
          "type": "uint256"
        }
      ],
      "name": "move",
      "outputs": [],
      "stateMutability": "nonpayable",
      "type": "function"
    },
    {
      "inputs": [
        {
          "internalType": "address",
          "name": "owner",
          "type": "address"
        },
        {
          "internalType": "address",
          "name": "spender",
          "type": "address"
        },
        {
          "internalType": "uint256",
          "name": "nonce",
          "type": "uint256"
        },
        {
          "internalType": "uint256",
          "name": "deadline",
          "type": "uint256"
        },
        {
          "internalType": "bool",
          "name": "allowed",
          "type": "bool"
        },
        {
          "internalType": "uint8",
          "name": "v",
          "type": "uint8"
        },
        {
          "internalType": "bytes32",
          "name": "r",
          "type": "bytes32"
        },
        {
          "internalType": "bytes32",
          "name": "s",
          "type": "bytes32"
        }
      ],
      "name": "permit",
      "outputs": [],
      "stateMutability": "nonpayable",
      "type": "function"
    }
  ],
  "bytecode": "0x60806040526402540be4006001553480156200001a57600080fd5b50604051620023ef380380620023ef83398181016040528101906200004091906200019a565b60016000803373ffffffffffffffffffffffffffffffffffffffff1673ffffffffffffffffffffffffffffffffffffffff168152602001908152602001600020819055507f8b73c3c69bb8fe3d512ecc4cf759cc79239f7b179b0ffacaa9a75d522b39400f6040518060400160405280600f81526020017f4574626320537461626c65636f696e0000000000000000000000000000000000815250805190602001206040518060400160405280600181526020017f3100000000000000000000000000000000000000000000000000000000000000815250805190602001208330604051602001620001379594939291906200023d565b60405160208183030381529060405280519060200120600581905550506200029a565b600080fd5b6000819050919050565b62000174816200015f565b81146200018057600080fd5b50565b600081519050620001948162000169565b92915050565b600060208284031215620001b357620001b26200015a565b5b6000620001c38482850162000183565b91505092915050565b6000819050919050565b620001e181620001cc565b82525050565b620001f2816200015f565b82525050565b600073ffffffffffffffffffffffffffffffffffffffff82169050919050565b60006200022582620001f8565b9050919050565b620002378162000218565b82525050565b600060a082019050620002546000830188620001d6565b620002636020830187620001d6565b620002726040830186620001d6565b620002816060830185620001e7565b6200029060808301846200022c565b9695505050505050565b61214580620002aa6000396000f3fe608060405234801561001057600080fd5b50600436106101425760003560e01c80637ecebe00116100b8578063a9059cbb1161007c578063a9059cbb14610365578063b753a98c14610395578063bb35783b146103b1578063bf353dbb146103cd578063dd62ed3e146103fd578063f2d5d56b1461042d57610142565b80637ecebe00146102c35780638fcbaf0c146102f357806395d89b411461030f5780639c52a7f11461032d5780639dc29fac1461034957610142565b8063313ce5671161010a578063313ce567146102015780633644e5151461021f57806340c10f191461023d57806354fd4d501461025957806365fae35e1461027757806370a082311461029357610142565b806306fdde0314610147578063095ea7b31461016557806318160ddd1461019557806323b872dd146101b357806330adf81f146101e3575b600080fd5b61014f610449565b60405161015c919061174e565b60405180910390f35b61017f600480360381019061017a9190611809565b610482565b60405161018c9190611864565b60405180910390f35b61019d610574565b6040516101aa919061188e565b60405180910390f35b6101cd60048036038101906101c891906118a9565b61057a565b6040516101da9190611864565b60405180910390f35b6101eb610a29565b6040516101f89190611915565b60405180910390f35b610209610a50565b604051610216919061194c565b60405180910390f35b610227610a55565b6040516102349190611915565b60405180910390f35b61025760048036038101906102529190611809565b610a5b565b005b610261610be4565b60405161026e919061174e565b60405180910390f35b610291600480360381019061028c9190611967565b610c1d565b005b6102ad60048036038101906102a89190611967565b610ce5565b6040516102ba919061188e565b60405180910390f35b6102dd60048036038101906102d89190611967565b610cfd565b6040516102ea919061188e565b60405180910390f35b61030d60048036038101906103089190611a18565b610d15565b005b6103176110c7565b604051610324919061174e565b60405180910390f35b61034760048036038101906103429190611967565b611100565b005b610363600480360381019061035e9190611809565b6111c8565b005b61037f600480360381019061037a9190611809565b6115f5565b60405161038c9190611864565b60405180910390f35b6103af60048036038101906103aa9190611809565b61160a565b005b6103cb60048036038101906103c691906118a9565b61161a565b005b6103e760048036038101906103e29190611967565b61162b565b6040516103f4919061188e565b60405180910390f35b61041760048036038101906104129190611ace565b611643565b604051610424919061188e565b60405180910390f35b61044760048036038101906104429190611809565b611668565b005b6040518060400160405280600f81526020017f4574626320537461626c65636f696e000000000000000000000000000000000081525081565b600081600360003373ffffffffffffffffffffffffffffffffffffffff1673ffffffffffffffffffffffffffffffffffffffff16815260200190815260200160002060008573ffffffffffffffffffffffffffffffffffffffff1673ffffffffffffffffffffffffffffffffffffffff168152602001908152602001600020819055508273ffffffffffffffffffffffffffffffffffffffff163373ffffffffffffffffffffffffffffffffffffffff167f8c5be1e5ebec7d5bd14f71427d1e84f3dd0314c0f7b2291e5b200ac8c7c3b92584604051610562919061188e565b60405180910390a36001905092915050565b60015481565b600081600260008673ffffffffffffffffffffffffffffffffffffffff1673ffffffffffffffffffffffffffffffffffffffff1681526020019081526020016000205410156105fe576040517f08c379a00000000000000000000000000000000000000000000000000000000081526004016105f590611b5a565b60405180910390fd5b3373ffffffffffffffffffffffffffffffffffffffff168473ffffffffffffffffffffffffffffffffffffffff16141580156106d657507fffffffffffffffffffffffffffffffffffffffffffffffffffffffffffffffff600360008673ffffffffffffffffffffffffffffffffffffffff1673ffffffffffffffffffffffffffffffffffffffff16815260200190815260200160002060003373ffffffffffffffffffffffffffffffffffffffff1673ffffffffffffffffffffffffffffffffffffffff1681526020019081526020016000205414155b156108a15781600360008673ffffffffffffffffffffffffffffffffffffffff1673ffffffffffffffffffffffffffffffffffffffff16815260200190815260200160002060003373ffffffffffffffffffffffffffffffffffffffff1673ffffffffffffffffffffffffffffffffffffffff16815260200190815260200160002054101561079a576040517f08c379a000000000000000000000000000000000000000000000000000000000815260040161079190611bc6565b60405180910390fd5b610820600360008673ffffffffffffffffffffffffffffffffffffffff1673ffffffffffffffffffffffffffffffffffffffff16815260200190815260200160002060003373ffffffffffffffffffffffffffffffffffffffff1673ffffffffffffffffffffffffffffffffffffffff1681526020019081526020016000205483611678565b600360008673ffffffffffffffffffffffffffffffffffffffff1673ffffffffffffffffffffffffffffffffffffffff16815260200190815260200160002060003373ffffffffffffffffffffffffffffffffffffffff1673ffffffffffffffffffffffffffffffffffffffff168152602001908152602001600020819055505b6108ea600260008673ffffffffffffffffffffffffffffffffffffffff1673ffffffffffffffffffffffffffffffffffffffff1681526020019081526020016000205483611678565b600260008673ffffffffffffffffffffffffffffffffffffffff1673ffffffffffffffffffffffffffffffffffffffff16815260200190815260200160002081905550610976600260008573ffffffffffffffffffffffffffffffffffffffff1673ffffffffffffffffffffffffffffffffffffffff168152602001908152602001600020548361169b565b600260008573ffffffffffffffffffffffffffffffffffffffff1673ffffffffffffffffffffffffffffffffffffffff168152602001908152602001600020819055508273ffffffffffffffffffffffffffffffffffffffff168473ffffffffffffffffffffffffffffffffffffffff167fddf252ad1be2c89b69c2b068fc378daa952ba7f163c4a11628f55a4df523b3ef84604051610a16919061188e565b60405180910390a3600190509392505050565b7fea2aa0a1be11a07ed86d755c93467f4f82362b452371d1ba94d1715123511acb60001b81565b601281565b60055481565b60016000803373ffffffffffffffffffffffffffffffffffffffff1673ffffffffffffffffffffffffffffffffffffffff1681526020019081526020016000205414610adc576040517f08c379a0000000000000000000000000000000000000000000000000000000008152600401610ad390611c32565b60405180910390fd5b610b25600260008473ffffffffffffffffffffffffffffffffffffffff1673ffffffffffffffffffffffffffffffffffffffff168152602001908152602001600020548261169b565b600260008473ffffffffffffffffffffffffffffffffffffffff1673ffffffffffffffffffffffffffffffffffffffff16815260200190815260200160002081905550610b746001548261169b565b6001819055508173ffffffffffffffffffffffffffffffffffffffff16600073ffffffffffffffffffffffffffffffffffffffff167fddf252ad1be2c89b69c2b068fc378daa952ba7f163c4a11628f55a4df523b3ef83604051610bd8919061188e565b60405180910390a35050565b6040518060400160405280600181526020017f310000000000000000000000000000000000000000000000000000000000000081525081565b60016000803373ffffffffffffffffffffffffffffffffffffffff1673ffffffffffffffffffffffffffffffffffffffff1681526020019081526020016000205414610c9e576040517f08c379a0000000000000000000000000000000000000000000000000000000008152600401610c9590611c32565b60405180910390fd5b60016000808373ffffffffffffffffffffffffffffffffffffffff1673ffffffffffffffffffffffffffffffffffffffff1681526020019081526020016000208190555050565b60026020528060005260406000206000915090505481565b60046020528060005260406000206000915090505481565b60006005547fea2aa0a1be11a07ed86d755c93467f4f82362b452371d1ba94d1715123511acb60001b8a8a8a8a604051602001610d56959493929190611c61565b60405160208183030381529060405280519060200120604051602001610d7d929190611d2c565b604051602081830303815290604052805190602001209050600073ffffffffffffffffffffffffffffffffffffffff168973ffffffffffffffffffffffffffffffffffffffff1603610e04576040517f08c379a0000000000000000000000000000000000000000000000000000000008152600401610dfb90611daf565b60405180910390fd5b60018185858560405160008152602001604052604051610e279493929190611dcf565b6020604051602081039080840390855afa158015610e49573d6000803e3d6000fd5b5050506020604051035173ffffffffffffffffffffffffffffffffffffffff168973ffffffffffffffffffffffffffffffffffffffff1614610ec0576040517f08c379a0000000000000000000000000000000000000000000000000000000008152600401610eb790611e60565b60405180910390fd5b6000861480610ecf5750854211155b610f0e576040517f08c379a0000000000000000000000000000000000000000000000000000000008152600401610f0590611ecc565b60405180910390fd5b600460008a73ffffffffffffffffffffffffffffffffffffffff1673ffffffffffffffffffffffffffffffffffffffff1681526020019081526020016000206000815480929190610f5e90611f1b565b919050558714610fa3576040517f08c379a0000000000000000000000000000000000000000000000000000000008152600401610f9a90611faf565b60405180910390fd5b600085610fb1576000610fd3565b7fffffffffffffffffffffffffffffffffffffffffffffffffffffffffffffffff5b905080600360008c73ffffffffffffffffffffffffffffffffffffffff1673ffffffffffffffffffffffffffffffffffffffff16815260200190815260200160002060008b73ffffffffffffffffffffffffffffffffffffffff1673ffffffffffffffffffffffffffffffffffffffff168152602001908152602001600020819055508873ffffffffffffffffffffffffffffffffffffffff168a73ffffffffffffffffffffffffffffffffffffffff167f8c5be1e5ebec7d5bd14f71427d1e84f3dd0314c0f7b2291e5b200ac8c7c3b925836040516110b3919061188e565b60405180910390a350505050505050505050565b6040518060400160405280600481526020017f455442430000000000000000000000000000000000000000000000000000000081525081565b60016000803373ffffffffffffffffffffffffffffffffffffffff1673ffffffffffffffffffffffffffffffffffffffff1681526020019081526020016000205414611181576040517f08c379a000000000000000000000000000000000000000000000000000000000815260040161117890611c32565b60405180910390fd5b60008060008373ffffffffffffffffffffffffffffffffffffffff1673ffffffffffffffffffffffffffffffffffffffff1681526020019081526020016000208190555050565b80600260008473ffffffffffffffffffffffffffffffffffffffff1673ffffffffffffffffffffffffffffffffffffffff16815260200190815260200160002054101561124a576040517f08c379a00000000000000000000000000000000000000000000000000000000081526004016112419061201b565b60405180910390fd5b3373ffffffffffffffffffffffffffffffffffffffff168273ffffffffffffffffffffffffffffffffffffffff161415801561132257507fffffffffffffffffffffffffffffffffffffffffffffffffffffffffffffffff600360008473ffffffffffffffffffffffffffffffffffffffff1673ffffffffffffffffffffffffffffffffffffffff16815260200190815260200160002060003373ffffffffffffffffffffffffffffffffffffffff1673ffffffffffffffffffffffffffffffffffffffff1681526020019081526020016000205414155b156114ed5780600360008473ffffffffffffffffffffffffffffffffffffffff1673ffffffffffffffffffffffffffffffffffffffff16815260200190815260200160002060003373ffffffffffffffffffffffffffffffffffffffff1673ffffffffffffffffffffffffffffffffffffffff1681526020019081526020016000205410156113e6576040517f08c379a00000000000000000000000000000000000000000000000000000000081526004016113dd90612087565b60405180910390fd5b61146c600360008473ffffffffffffffffffffffffffffffffffffffff1673ffffffffffffffffffffffffffffffffffffffff16815260200190815260200160002060003373ffffffffffffffffffffffffffffffffffffffff1673ffffffffffffffffffffffffffffffffffffffff1681526020019081526020016000205482611678565b600360008473ffffffffffffffffffffffffffffffffffffffff1673ffffffffffffffffffffffffffffffffffffffff16815260200190815260200160002060003373ffffffffffffffffffffffffffffffffffffffff1673ffffffffffffffffffffffffffffffffffffffff168152602001908152602001600020819055505b611536600260008473ffffffffffffffffffffffffffffffffffffffff1673ffffffffffffffffffffffffffffffffffffffff1681526020019081526020016000205482611678565b600260008473ffffffffffffffffffffffffffffffffffffffff1673ffffffffffffffffffffffffffffffffffffffff1681526020019081526020016000208190555061158560015482611678565b600181905550600073ffffffffffffffffffffffffffffffffffffffff168273ffffffffffffffffffffffffffffffffffffffff167fddf252ad1be2c89b69c2b068fc378daa952ba7f163c4a11628f55a4df523b3ef836040516115e9919061188e565b60405180910390a35050565b600061160233848461057a565b905092915050565b61161533838361057a565b505050565b61162583838361057a565b50505050565b60006020528060005260406000206000915090505481565b6003602052816000526040600020602052806000526040600020600091509150505481565b61167382338361057a565b505050565b600082828461168791906120a7565b915081111561169557600080fd5b92915050565b60008282846116aa91906120db565b91508110156116b857600080fd5b92915050565b600081519050919050565b600082825260208201905092915050565b60005b838110156116f85780820151818401526020810190506116dd565b60008484015250505050565b6000601f19601f8301169050919050565b6000611720826116be565b61172a81856116c9565b935061173a8185602086016116da565b61174381611704565b840191505092915050565b600060208201905081810360008301526117688184611715565b905092915050565b600080fd5b600073ffffffffffffffffffffffffffffffffffffffff82169050919050565b60006117a082611775565b9050919050565b6117b081611795565b81146117bb57600080fd5b50565b6000813590506117cd816117a7565b92915050565b6000819050919050565b6117e6816117d3565b81146117f157600080fd5b50565b600081359050611803816117dd565b92915050565b600080604083850312156118205761181f611770565b5b600061182e858286016117be565b925050602061183f858286016117f4565b9150509250929050565b60008115159050919050565b61185e81611849565b82525050565b60006020820190506118796000830184611855565b92915050565b611888816117d3565b82525050565b60006020820190506118a3600083018461187f565b92915050565b6000806000606084860312156118c2576118c1611770565b5b60006118d0868287016117be565b93505060206118e1868287016117be565b92505060406118f2868287016117f4565b9150509250925092565b6000819050919050565b61190f816118fc565b82525050565b600060208201905061192a6000830184611906565b92915050565b600060ff82169050919050565b61194681611930565b82525050565b6000602082019050611961600083018461193d565b92915050565b60006020828403121561197d5761197c611770565b5b600061198b848285016117be565b91505092915050565b61199d81611849565b81146119a857600080fd5b50565b6000813590506119ba81611994565b92915050565b6119c981611930565b81146119d457600080fd5b50565b6000813590506119e6816119c0565b92915050565b6119f5816118fc565b8114611a0057600080fd5b50565b600081359050611a12816119ec565b92915050565b600080600080600080600080610100898b031215611a3957611a38611770565b5b6000611a478b828c016117be565b9850506020611a588b828c016117be565b9750506040611a698b828c016117f4565b9650506060611a7a8b828c016117f4565b9550506080611a8b8b828c016119ab565b94505060a0611a9c8b828c016119d7565b93505060c0611aad8b828c01611a03565b92505060e0611abe8b828c01611a03565b9150509295985092959890939650565b60008060408385031215611ae557611ae4611770565b5b6000611af3858286016117be565b9250506020611b04858286016117be565b9150509250929050565b7f4461692f696e73756666696369656e742d62616c616e63650000000000000000600082015250565b6000611b446018836116c9565b9150611b4f82611b0e565b602082019050919050565b60006020820190508181036000830152611b7381611b37565b9050919050565b7f4461692f696e73756666696369656e742d616c6c6f77616e6365000000000000600082015250565b6000611bb0601a836116c9565b9150611bbb82611b7a565b602082019050919050565b60006020820190508181036000830152611bdf81611ba3565b9050919050565b7f457462632f6e6f742d617574686f72697a656400000000000000000000000000600082015250565b6000611c1c6013836116c9565b9150611c2782611be6565b602082019050919050565b60006020820190508181036000830152611c4b81611c0f565b9050919050565b611c5b81611795565b82525050565b600060a082019050611c766000830188611906565b611c836020830187611c52565b611c906040830186611c52565b611c9d606083018561187f565b611caa608083018461187f565b9695505050505050565b600081905092915050565b7f1901000000000000000000000000000000000000000000000000000000000000600082015250565b6000611cf5600283611cb4565b9150611d0082611cbf565b600282019050919050565b6000819050919050565b611d26611d21826118fc565b611d0b565b82525050565b6000611d3782611ce8565b9150611d438285611d15565b602082019150611d538284611d15565b6020820191508190509392505050565b7f457462632f696e76616c69642d616464726573732d3000000000000000000000600082015250565b6000611d996016836116c9565b9150611da482611d63565b602082019050919050565b60006020820190508181036000830152611dc881611d8c565b9050919050565b6000608082019050611de46000830187611906565b611df1602083018661193d565b611dfe6040830185611906565b611e0b6060830184611906565b95945050505050565b7f457462632f696e76616c69642d7065726d697400000000000000000000000000600082015250565b6000611e4a6013836116c9565b9150611e5582611e14565b602082019050919050565b60006020820190508181036000830152611e7981611e3d565b9050919050565b7f457462632f7065726d69742d6578706972656400000000000000000000000000600082015250565b6000611eb66013836116c9565b9150611ec182611e80565b602082019050919050565b60006020820190508181036000830152611ee581611ea9565b9050919050565b7f4e487b7100000000000000000000000000000000000000000000000000000000600052601160045260246000fd5b6000611f26826117d3565b91507fffffffffffffffffffffffffffffffffffffffffffffffffffffffffffffffff8203611f5857611f57611eec565b5b600182019050919050565b7f457462632f696e76616c69642d6e6f6e63650000000000000000000000000000600082015250565b6000611f996012836116c9565b9150611fa482611f63565b602082019050919050565b60006020820190508181036000830152611fc881611f8c565b9050919050565b7f457462632f696e73756666696369656e742d62616c616e636500000000000000600082015250565b60006120056019836116c9565b915061201082611fcf565b602082019050919050565b6000602082019050818103600083015261203481611ff8565b9050919050565b7f457462632f696e73756666696369656e742d616c6c6f77616e63650000000000600082015250565b6000612071601b836116c9565b915061207c8261203b565b602082019050919050565b600060208201905081810360008301526120a081612064565b9050919050565b60006120b2826117d3565b91506120bd836117d3565b92508282039050818111156120d5576120d4611eec565b5b92915050565b60006120e6826117d3565b91506120f1836117d3565b925082820190508082111561210957612108611eec565b5b9291505056fea2646970667358221220298e0aeebd7ef3900c36e9d54c6df22cfd0778e74bf02db8593778eae728d09264736f6c63430008130033",
  "immutableReferences": {},
  "source": "// SPDX-License-Identifier: MIT\npragma solidity ^0.8.0;\n\n// contract LibNote {\n//     event LogNote(\n//         bytes4 indexed sig,\n//         address indexed usr,\n//         bytes32 indexed arg1,\n//         bytes32 indexed arg2,\n//         bytes data\n//     ) anonymous;\n\n//     modifier note() {\n//         _;\n//         assembly {\n//             // log an 'anonymous' event with a constant 6 words of calldata\n//             // and four indexed topics: selector, caller, arg1 and arg2\n//             let mark := msize() // end of memory ensures zero\n//             mstore(0x40, add(mark, 288)) // update free memory pointer\n//             mstore(mark, 0x20) // bytes type data offset\n//             mstore(add(mark, 0x20), 224) // bytes size (padded)\n//             calldatacopy(add(mark, 0x40), 0, 224) // bytes payload\n//             log4(\n//                 mark,\n//                 288, // calldata\n//                 shl(224, shr(224, calldataload(0))), // msg.sig\n//                 caller(), // msg.sender\n//                 calldataload(4), // arg1\n//                 calldataload(36) // arg2\n//             )\n//         }\n//     }\n// }\n\ncontract Etbc {\n    mapping(address => uint256) public wards;\n\n    // check and understand how this work part of auth\n\n    function rely(address guy) external auth {\n        wards[guy] = 1;\n    }\n\n    function deny(address guy) external auth {\n        wards[guy] = 0;\n    }\n\n    modifier auth() {\n        require(wards[msg.sender] == 1, \"Etbc/not-authorized\");\n        _;\n    }\n\n    //Erc20 part\n    string public constant name = \"Etbc Stablecoin\";\n    string public constant symbol = \"ETBC\";\n    string public constant version = \"1\";\n    uint8 public constant decimals = 18;\n    uint256 public totalSupply = 10000000000;\n\n    mapping(address => uint256) public balanceOf;\n    mapping(address => mapping(address => uint256)) public allowance;\n    mapping(address => uint256) public nonces;\n\n    event Approval(address indexed src, address indexed guy, uint256 wad);\n    event Transfer(address indexed src, address indexed dst, uint256 wad);\n\n    // --- Math --- because of overflow\n    function add(uint256 x, uint256 y) internal pure returns (uint256 z) {\n        require((z = x + y) >= x);\n    }\n\n    function sub(uint256 x, uint256 y) internal pure returns (uint256 z) {\n        require((z = x - y) <= x);\n    }\n\n    // --- EIP712 niceties ---\n    bytes32 public DOMAIN_SEPARATOR;\n    // bytes32 public constant PERMIT_TYPEHASH = keccak256(\"Permit(address holder,address spender,uint256 nonce,uint256 expiry,bool allowed)\");\n    bytes32 public constant PERMIT_TYPEHASH =\n        0xea2aa0a1be11a07ed86d755c93467f4f82362b452371d1ba94d1715123511acb;\n\n    constructor(uint256 chainId_) {\n        wards[msg.sender] = 1;\n        DOMAIN_SEPARATOR = keccak256(\n            abi.encode(\n                keccak256(\n                    \"EIP712Domain(string name,string version,uint256 chainId,address verifyingContract)\"\n                ),\n                keccak256(bytes(name)),\n                keccak256(bytes(version)),\n                chainId_,\n                address(this)\n            )\n        );\n    }\n\n    // --- Token ---\n    function transfer(address dst, uint256 wad) external returns (bool) {\n        return transferFrom(msg.sender, dst, wad);\n    }\n\n    function transferFrom(\n        address src,\n        address dst,\n        uint256 wad\n    ) public returns (bool) {\n        require(balanceOf[src] >= wad, \"Dai/insufficient-balance\");\n        if (\n            src != msg.sender && allowance[src][msg.sender] != type(uint256).max\n        ) {\n            require(\n                allowance[src][msg.sender] >= wad,\n                \"Dai/insufficient-allowance\"\n            );\n            allowance[src][msg.sender] = sub(allowance[src][msg.sender], wad);\n        }\n        balanceOf[src] = sub(balanceOf[src], wad);\n        balanceOf[dst] = add(balanceOf[dst], wad);\n        emit Transfer(src, dst, wad);\n        return true;\n    }\n\n    function mint(address usr, uint256 wad) external auth {\n        balanceOf[usr] = add(balanceOf[usr], wad);\n        totalSupply = add(totalSupply, wad);\n        emit Transfer(address(0), usr, wad);\n    }\n\n    function burn(address usr, uint256 wad) external {\n        require(balanceOf[usr] >= wad, \"Etbc/insufficient-balance\");\n        if (\n            usr != msg.sender && allowance[usr][msg.sender] != type(uint256).max\n        ) {\n            require(\n                allowance[usr][msg.sender] >= wad,\n                \"Etbc/insufficient-allowance\"\n            );\n            allowance[usr][msg.sender] = sub(allowance[usr][msg.sender], wad);\n        }\n        balanceOf[usr] = sub(balanceOf[usr], wad);\n        totalSupply = sub(totalSupply, wad);\n        emit Transfer(usr, address(0), wad);\n    }\n\n    function approve(address usr, uint256 wad) external returns (bool) {\n        allowance[msg.sender][usr] = wad;\n        emit Approval(msg.sender, usr, wad);\n        return true;\n    }\n\n    // --- Alias ---\n    function push(address usr, uint256 wad) external {\n        transferFrom(msg.sender, usr, wad);\n    }\n\n    function pull(address usr, uint256 wad) external {\n        transferFrom(usr, msg.sender, wad);\n    }\n\n    function move(\n        address src,\n        address dst,\n        uint256 wad\n    ) external {\n        transferFrom(src, dst, wad);\n    }\n\n    // --- Approve by signature ---\n\n    function permit(\n        address owner,\n        address spender,\n        uint256 nonce,\n        uint256 deadline,\n        bool allowed,\n        uint8 v,\n        bytes32 r,\n        bytes32 s\n    ) external {\n        bytes32 digest = keccak256(\n            abi.encodePacked(\n                hex\"1901\",\n                DOMAIN_SEPARATOR,\n                keccak256(\n                    abi.encode(PERMIT_TYPEHASH, owner, spender, nonce, deadline)\n                )\n            )\n        );\n        require(owner != address(0), \"Etbc/invalid-address-0\");\n        require(owner == ecrecover(digest, v, r, s), \"Etbc/invalid-permit\");\n        require(\n            deadline == 0 || block.timestamp <= deadline,\n            \"Etbc/permit-expired\"\n        );\n        require(nonce == nonces[owner]++, \"Etbc/invalid-nonce\");\n        uint256 wad = allowed ? type(uint256).max : 0;\n        allowance[owner][spender] = wad;\n        emit Approval(owner, spender, wad);\n    }\n}\n",
  "sourcePath": "/home/user43/Desktop/work/future/Ano-Blocks-SmartContracts/contracts/etbcoin.sol",
  "compiler": {
    "name": "solc",
    "version": "0.8.19+commit.7dd6d404.Emscripten.clang"
  },
  "schemaVersion": "3.4.13",
  "updatedAt": "2023-05-19T09:05:43.184Z",
  "networkType": "ethereum",
  "devdoc": {
    "kind": "dev",
    "methods": {},
    "version": 1
  },
  "userdoc": {
    "kind": "user",
    "methods": {},
    "version": 1
  }
}