{
  "contractName": "Ownable",
  "abi": [
    {
      "inputs": [],
      "stateMutability": "nonpayable",
      "type": "constructor"
    },
    {
      "inputs": [],
      "name": "owner",
      "outputs": [
        {
          "internalType": "address",
          "name": "",
          "type": "address"
        }
      ],
      "stateMutability": "view",
      "type": "function"
    }
  ],
  "bytecode": "0x608060405234801561001057600080fd5b50336000806101000a81548173ffffffffffffffffffffffffffffffffffffffff021916908373ffffffffffffffffffffffffffffffffffffffff16021790555060f78061005f6000396000f3fe6080604052348015600f57600080fd5b506004361060285760003560e01c80638da5cb5b14602d575b600080fd5b60336047565b604051603e919060a8565b60405180910390f35b60008054906101000a900473ffffffffffffffffffffffffffffffffffffffff1681565b600073ffffffffffffffffffffffffffffffffffffffff82169050919050565b6000609482606b565b9050919050565b60a281608b565b82525050565b600060208201905060bb6000830184609b565b9291505056fea2646970667358221220f76d7a72f132888b575afd0b9ad9ea9a699db72233af6bea74127528ac7daa9164736f6c63430008130033",
  "immutableReferences": {},
  "source": "// SPDX-License-Identifier: MIT\npragma solidity ^0.8.17;\n\ncontract Ownable {\n    address public owner;\n\n    constructor() {\n        owner = msg.sender;\n    }\n\n    modifier onlyOwner() {\n        require(\n            msg.sender == owner,\n            \"Only the contract owner can call this function.\"\n        );\n        _;\n    }\n}\n\ncontract TrackChapa is Ownable {\n    struct Transaction {\n        bool status;\n        uint256 amount;\n    }\n\n    mapping(address => mapping(uint256 => Transaction)) transactions;\n    mapping(address => uint256) public transactionNumber;\n\n    function getTransaction(address user)\n        public\n        view\n        returns (Transaction[] memory)\n    {\n        Transaction[] memory ret = new Transaction[](transactionNumber[user]);\n\n        for (uint256 i = 1; i <= transactionNumber[user]; i++) {\n            ret[i - 1] = transactions[user][i];\n        }\n        return ret;\n    }\n\n    function newTransaction(address user, uint256 amount) public {\n        transactionNumber[user]++;\n\n        Transaction storage transaction = transactions[user][\n            transactionNumber[user]\n        ];\n\n        transaction.amount = amount;\n        transaction.status = false;\n    }\n\n    function confirmTransaction(address user, uint256 id) public onlyOwner {\n        transactions[user][id].status = true;\n    }\n}\n",
  "sourcePath": "/home/user43/Desktop/work/future/Ano-Blocks-SmartContracts/contracts/TrackChapa.sol",
  "compiler": {
    "name": "solc",
    "version": "0.8.19+commit.7dd6d404.Emscripten.clang"
  },
  "schemaVersion": "3.4.13",
  "updatedAt": "2023-05-25T18:41:24.757Z",
  "devdoc": {
    "kind": "dev",
    "methods": {},
    "version": 1
  },
  "userdoc": {
    "kind": "user",
    "methods": {},
    "version": 1
  }
}