{
  "contractName": "TrackChapa",
  "abi": [
    {
      "inputs": [],
      "name": "owner",
      "outputs": [
        {
          "internalType": "address",
          "name": "",
          "type": "address"
        }
      ],
      "stateMutability": "view",
      "type": "function",
      "constant": true
    },
    {
      "inputs": [
        {
          "internalType": "address",
          "name": "",
          "type": "address"
        }
      ],
      "name": "transactionNumber",
      "outputs": [
        {
          "internalType": "uint256",
          "name": "",
          "type": "uint256"
        }
      ],
      "stateMutability": "view",
      "type": "function",
      "constant": true
    },
    {
      "inputs": [
        {
          "internalType": "address",
          "name": "user",
          "type": "address"
        }
      ],
      "name": "getTransaction",
      "outputs": [
        {
          "components": [
            {
              "internalType": "bool",
              "name": "status",
              "type": "bool"
            },
            {
              "internalType": "uint256",
              "name": "amount",
              "type": "uint256"
            }
          ],
          "internalType": "struct TrackChapa.Transaction[]",
          "name": "",
          "type": "tuple[]"
        }
      ],
      "stateMutability": "view",
      "type": "function",
      "constant": true
    },
    {
      "inputs": [
        {
          "internalType": "address",
          "name": "user",
          "type": "address"
        },
        {
          "internalType": "uint256",
          "name": "amount",
          "type": "uint256"
        }
      ],
      "name": "newTransaction",
      "outputs": [],
      "stateMutability": "nonpayable",
      "type": "function"
    },
    {
      "inputs": [
        {
          "internalType": "address",
          "name": "user",
          "type": "address"
        },
        {
          "internalType": "uint256",
          "name": "id",
          "type": "uint256"
        }
      ],
      "name": "confirmTransaction",
      "outputs": [],
      "stateMutability": "nonpayable",
      "type": "function"
    }
  ],
  "bytecode": "0x608060405234801561001057600080fd5b50336000806101000a81548173ffffffffffffffffffffffffffffffffffffffff021916908373ffffffffffffffffffffffffffffffffffffffff16021790555061098d806100606000396000f3fe608060405234801561001057600080fd5b50600436106100575760003560e01c80632fb9ff341461005c5780637bb8637914610078578063887e7be5146100a85780638da5cb5b146100c4578063ef16db5e146100e2575b600080fd5b610076600480360381019061007191906105c0565b610112565b005b610092600480360381019061008d9190610600565b610225565b60405161009f9190610735565b60405180910390f35b6100c260048036038101906100bd91906105c0565b6103d2565b005b6100cc6104cf565b6040516100d99190610766565b60405180910390f35b6100fc60048036038101906100f79190610600565b6104f3565b6040516101099190610790565b60405180910390f35b600260008373ffffffffffffffffffffffffffffffffffffffff1673ffffffffffffffffffffffffffffffffffffffff1681526020019081526020016000206000815480929190610162906107da565b91905055506000600160008473ffffffffffffffffffffffffffffffffffffffff1673ffffffffffffffffffffffffffffffffffffffff1681526020019081526020016000206000600260008673ffffffffffffffffffffffffffffffffffffffff1673ffffffffffffffffffffffffffffffffffffffff168152602001908152602001600020548152602001908152602001600020905081816001018190555060008160000160006101000a81548160ff021916908315150217905550505050565b60606000600260008473ffffffffffffffffffffffffffffffffffffffff1673ffffffffffffffffffffffffffffffffffffffff1681526020019081526020016000205467ffffffffffffffff81111561028257610281610822565b5b6040519080825280602002602001820160405280156102bb57816020015b6102a861050b565b8152602001906001900390816102a05790505b5090506000600190505b600260008573ffffffffffffffffffffffffffffffffffffffff1673ffffffffffffffffffffffffffffffffffffffff1681526020019081526020016000205481116103c857600160008573ffffffffffffffffffffffffffffffffffffffff1673ffffffffffffffffffffffffffffffffffffffff16815260200190815260200160002060008281526020019081526020016000206040518060400160405290816000820160009054906101000a900460ff16151515158152602001600182015481525050826001836103999190610851565b815181106103aa576103a9610885565b5b602002602001018190525080806103c0906107da565b9150506102c5565b5080915050919050565b60008054906101000a900473ffffffffffffffffffffffffffffffffffffffff1673ffffffffffffffffffffffffffffffffffffffff163373ffffffffffffffffffffffffffffffffffffffff1614610460576040517f08c379a000000000000000000000000000000000000000000000000000000000815260040161045790610937565b60405180910390fd5b60018060008473ffffffffffffffffffffffffffffffffffffffff1673ffffffffffffffffffffffffffffffffffffffff168152602001908152602001600020600083815260200190815260200160002060000160006101000a81548160ff0219169083151502179055505050565b60008054906101000a900473ffffffffffffffffffffffffffffffffffffffff1681565b60026020528060005260406000206000915090505481565b6040518060400160405280600015158152602001600081525090565b600080fd5b600073ffffffffffffffffffffffffffffffffffffffff82169050919050565b60006105578261052c565b9050919050565b6105678161054c565b811461057257600080fd5b50565b6000813590506105848161055e565b92915050565b6000819050919050565b61059d8161058a565b81146105a857600080fd5b50565b6000813590506105ba81610594565b92915050565b600080604083850312156105d7576105d6610527565b5b60006105e585828601610575565b92505060206105f6858286016105ab565b9150509250929050565b60006020828403121561061657610615610527565b5b600061062484828501610575565b91505092915050565b600081519050919050565b600082825260208201905092915050565b6000819050602082019050919050565b60008115159050919050565b61066e81610659565b82525050565b61067d8161058a565b82525050565b6040820160008201516106996000850182610665565b5060208201516106ac6020850182610674565b50505050565b60006106be8383610683565b60408301905092915050565b6000602082019050919050565b60006106e28261062d565b6106ec8185610638565b93506106f783610649565b8060005b8381101561072857815161070f88826106b2565b975061071a836106ca565b9250506001810190506106fb565b5085935050505092915050565b6000602082019050818103600083015261074f81846106d7565b905092915050565b6107608161054c565b82525050565b600060208201905061077b6000830184610757565b92915050565b61078a8161058a565b82525050565b60006020820190506107a56000830184610781565b92915050565b7f4e487b7100000000000000000000000000000000000000000000000000000000600052601160045260246000fd5b60006107e58261058a565b91507fffffffffffffffffffffffffffffffffffffffffffffffffffffffffffffffff8203610817576108166107ab565b5b600182019050919050565b7f4e487b7100000000000000000000000000000000000000000000000000000000600052604160045260246000fd5b600061085c8261058a565b91506108678361058a565b925082820390508181111561087f5761087e6107ab565b5b92915050565b7f4e487b7100000000000000000000000000000000000000000000000000000000600052603260045260246000fd5b600082825260208201905092915050565b7f4f6e6c792074686520636f6e7472616374206f776e65722063616e2063616c6c60008201527f20746869732066756e6374696f6e2e0000000000000000000000000000000000602082015250565b6000610921602f836108b4565b915061092c826108c5565b604082019050919050565b6000602082019050818103600083015261095081610914565b905091905056fea26469706673582212203c112a6d7ae2c17c6bd4006ebe22937fd64f1cf6758ddf8f53850ca052c204c664736f6c63430008130033",
  "immutableReferences": {},
  "source": "// SPDX-License-Identifier: MIT\npragma solidity ^0.8.17;\n\ncontract Ownable {\n    address public owner;\n\n    constructor() {\n        owner = msg.sender;\n    }\n\n    modifier onlyOwner() {\n        require(\n            msg.sender == owner,\n            \"Only the contract owner can call this function.\"\n        );\n        _;\n    }\n}\n\ncontract TrackChapa is Ownable {\n    struct Transaction {\n        bool status;\n        uint256 amount;\n    }\n\n    mapping(address => mapping(uint256 => Transaction)) transactions;\n    mapping(address => uint256) public transactionNumber;\n\n    function getTransaction(address user)\n        public\n        view\n        returns (Transaction[] memory)\n    {\n        Transaction[] memory ret = new Transaction[](transactionNumber[user]);\n\n        for (uint256 i = 1; i <= transactionNumber[user]; i++) {\n            ret[i - 1] = transactions[user][i];\n        }\n        return ret;\n    }\n\n    function newTransaction(address user, uint256 amount) public {\n        transactionNumber[user]++;\n\n        Transaction storage transaction = transactions[user][\n            transactionNumber[user]\n        ];\n\n        transaction.amount = amount;\n        transaction.status = false;\n    }\n\n    function confirmTransaction(address user, uint256 id) public onlyOwner {\n        transactions[user][id].status = true;\n    }\n}\n",
  "sourcePath": "/home/user43/Desktop/work/future/Ano-Blocks-SmartContracts/contracts/TrackChapa.sol",
  "compiler": {
    "name": "solc",
    "version": "0.8.19+commit.7dd6d404.Emscripten.clang"
  },
  "schemaVersion": "3.4.13",
  "updatedAt": "2023-05-25T18:50:38.932Z",
  "networkType": "ethereum",
  "devdoc": {
    "kind": "dev",
    "methods": {},
    "version": 1
  },
  "userdoc": {
    "kind": "user",
    "methods": {},
    "version": 1
  }
}